:100000000C9446000C946E000C946E000C946E00E0
:100010000C946E000C946E000C946E000C946E00A8
:100020000C946E000C94C70A0C946E000C946E0035
:100030000C946E000C946E000C946E000C946E0088
:100040000C948B050C946E000C9434070C94770779
:100050000C946E000C946E000C946E000C946E0068
:100060000C946E000C946E0005A84CCDB2D44EB921
:100070003836A9020C50B9918688083CA6AAAA2A4B
:10008000BE000000803F7A053A08140A11241FBE02
:10009000CFEFD8E0DEBFCDBF11E0A0E0B1E0ECE6ED
:1000A000FCE102C005900D92A233B107D9F722E01E
:1000B000A2E3B1E001C01D92AC3CB207E1F710E051
:1000C000C6E4D0E004C02197FE010E941F0EC33495
:1000D000D107C9F70E948D060C94F10A0C94000018
:1000E0000F931F93FC017583648353874287358781
:1000F000248711861086138302831F910F91089520
:10010000CF93DF93EB01A0E0B0E040E050E09A0134
:100110002A0F3B1FFC0162817381FB01E20FF31F79
:1001200028812083298121832A8122834D5F5F4F8B
:100130004B34510561F7A55BBF4FA639B10529F7CF
:10014000DF91CF910895FC017783668351834083CB
:100150000895CF93DF93D901FC0122813381DC9193
:100160001196CC9111971296AC9140FF12C0E9E123
:10017000E49FC001E59F900D1124861B970B4896C4
:10018000FC01EE0FFF1F8E0F9F1FF901E80FF91FF3
:1001900010C089E1849FF001859FF00D11246E0F3E
:1001A0007F1FFB01EE0FFF1F6E0F7F1FF901E60F90
:1001B000F71FD083C183A283DF91CF910895CF929F
:1001C000DF92EF92FF920F931F93CF93DF9300D0B4
:1001D0001F92CDB7DEB78C01DC0118962D913C91B2
:1001E000199714968D919C911597820F931F1696CF
:1001F0006D917C9117970E94A40DF80191878087DB
:10020000C12CD12CE12CF12CD80118962D913C91C8
:100210001997ED91FC91A601B701CE0101960995C0
:100220009E012F5F3F4FA601B701C8010E94A900A0
:10023000BFEFEB1AFB0AE9E1EE16F10429F7CA94C5
:10024000CD2821F0CC24C394D12CDCCF0F900F907B
:100250000F90DF91CF911F910F91FF90EF90DF9062
:10026000CF900895FC01858596850895CF93DF93FF
:1002700000D000D000D0CDB7DEB7AB011C821D820C
:100280001E82DC01ED91FC910190F081E02D19823C
:100290001A821B829E012F5F3F4FBE016C5F7F4F12
:1002A000099526960FB6F894DEBF0FBECDBFDF913D
:1002B000CF91089580E991E00895239A08958CE400
:1002C00091E00E94DF0060E071E08AEF91E00C9421
:1002D0007E06CF93DF93EC0182E3869FA001879F88
:1002E000500D1124B901640F751F072E000C880BE7
:1002F000990B0E940B0C9B01AC010E94F50A20E0B7
:1003000030E04AEF54E40E94610B23EC35EF48E4FF
:1003100050E40E94970C0E94040D20E030E040E879
:1003200052E40E94970C20E030E040E852E40E9442
:10033000F50A0E94D30B6A83CE01DF91CF91089515
:10034000CF93DF9300D01F92CDB7DEB740E052ECE1
:1003500061E070E08AEF91E00E94B2078091440171
:1003600081114DC084E491E00E948006892B09F43C
:1003700046C010923601109235018FEF80933901FB
:1003800080933A0180933B0180933C0180933D012F
:1003900080933E0181E080933F01109241011092D1
:1003A000400110923801109237018091B002909173
:1003B000B102892B31F483E391E09093B1028093F1
:1003C000B002E091AE02F091AF02309721F083E3EA
:1003D00091E09583848383E391E09093AF028093CF
:1003E000AE02109243011092420184E191E0909399
:1003F00034018093330184E491E00E94890620E077
:1004000030E042E350E06AE571E083E391E00E946E
:10041000D0084FE551E065E070E080E090E00E9498
:10042000240A0E94720A19821A828FEF8B83BE01FE
:100430006F5F7F4F8CE491E00E94800049E651E0BD
:1004400060ED77E08CE491E00E94A3000F900F90A4
:100450000F90DF91CF9108956091B20282EB92E00C
:100460000C9482099F92AF92BF92CF92DF92EF924B
:10047000FF920F931F93CF93DF93FC01C080D18035
:1004800025B12860B22E95B1977F95B96185868197
:10049000062F081B802F06837785A281B3813485C0
:1004A0004585568599249394930E4F5F5F5FF7803F
:1004B000E084C285D385F6011081A12C0A2D2A2D56
:1004C0003A2D3081112788943111380F08F43FEF0D
:1004D0008195889490FC130F1795889491FC130FC5
:1004E0001795889492FC130F1795889493FC130F1B
:1004F0001795889494FC130F1795889495FC130F07
:100500001795889496FC130F1795889497FC130FF2
:1005100017958894032F9110012F860F102F002C10
:10052000B5B800C000C017FF95B931810027889485
:1005300000C0002C95B931113F0D00C0002CB5B89A
:1005400000C000C016FF95B908F43FEFF1948894FD
:1005500000C0002C95B940FD030F00C0002CB5B8B9
:1005600000C000C015FF95B90795889441FD030FA1
:1005700000C0002C95B90795889400C0002CB5B830
:1005800000C000C014FF95B942FD030F0795889481
:1005900000C0002C95B943FD030F00C0002CB5B876
:1005A00000C000C013FF95B90795889444FD030F60
:1005B00000C0002C95B90795889400C0002CB5B8F0
:1005C00000C000C012FF95B945FD030F0795889440
:1005D00000C0002C95B946FD030F00C0002CB5B833
:1005E00000C000C011FF95B90795889447FD030F1F
:1005F00000C0002C95B90795889400C0002CB5B8B0
:1006000000C000C010FF95B9132F4111102FFC0E30
:1006100000C0002C95B900C000C0002CB5B800C0C7
:1006200000C017FF95B932810027889400C0002CC4
:1006300095B931113E0D00C0002CB5B800C000C006
:1006400016FF95B908F43FEFE70FF11D00C0002C2D
:1006500095B950FD030F00C0002CB5B800C000C014
:1006600015FF95B90795889451FD030F00C0002C24
:1006700095B90795889400C0002CB5B800C000C09B
:1006800014FF95B952FD030F0795889400C0002C04
:1006900095B953FD030F00C0002CB5B800C000C0D1
:1006A00013FF95B90795889454FD030F00C0002CE3
:1006B00095B90795889400C0002CB5B800C000C05B
:1006C00012FF95B955FD030F0795889400C0002CC3
:1006D00095B956FD030F00C0002CB5B800C000C08E
:1006E00011FF95B90795889457FD030F00C0002CA2
:1006F00095B90795889400C0002CB5B800C000C01B
:1007000010FF95B9132F5111102FE19400C0002C48
:1007100095B9ED0E00C000C0B5B800C000C017FF0D
:1007200095B930810027889400C0002C95B931110B
:10073000380F00C0002CB5B800C000C016FF95B936
:1007400008F43FEF8195889400C0002C95B990FC87
:10075000030F00C0002CB5B800C000C015FF95B94C
:100760000795889491FC030F00C0002C95B907955C
:10077000889400C0002CB5B800C000C014FF95B923
:1007800092FC030F0795889400C0002C95B993FC48
:10079000030F00C0002CB5B800C000C013FF95B90E
:1007A0000795889494FC030F00C0002C95B9079519
:1007B000889400C0002CB5B800C000C012FF95B9E5
:1007C00095FC030F0795889400C0002C95B996FC02
:1007D000030F00C0002CB5B800C000C011FF95B9D0
:1007E0000795889497FC030F00C0002C95B90795D6
:1007F000889400C0002CB5B800C000C010FF95B9A7
:10080000132F9110102F860F00C0002C95B911974F
:1008100009F086CEDF91CF911F910F91FF90EF905D
:10082000DF90CF90BF90AF909F9008950F931F934C
:10083000CF93DF93EC018B010E94E1052F8538896E
:10084000621B730B6A307105B8F3F894C8010E94FB
:100850003202D8011296ED91FC91139720EE31E00F
:10086000DF010E94F90DAB01BC01A4E0769567950C
:1008700057954795AA95D1F780E090E09C01AAE9A9
:10088000EA9F0E0E211DFA9F200D311D11242F0FFE
:10089000311D420F531F611D711D493EB3E05B07BF
:1008A0006105710508F434C0485E5340610971095F
:1008B00022E076956795579547952A95D1F727E0D9
:1008C000429F040E811D529F800D911D1124850FA2
:1008D000911D2091F00130E0420F531F480F591F26
:1008E0008091F2019091F301A091F401B091F50192
:1008F000252F3327820F931FA11DB11D8093F20175
:100900009093F301A093F401B093F5014093F001AB
:1009100078940E94E105788B6F87DF91CF911F91CA
:100920000F910895FC01118A108A0895EF92FF92A9
:100930000F931F93CF93DF93EC01909132019F5F50
:10094000292F27702093320190FF02C090E801C048
:1009500090E021FD9064247009F0906220E1290F5D
:10096000FE013C967E018FE0E80EF11C00E011E0F4
:100970006191662331F070E0C8010E94A40D6F5FA1
:1009800001C060E0DF0114976C93322F369F030E95
:1009900030E0311D1124CF010797311103C0EC0164
:1009A000188203C03150EC013883662311F0615086
:1009B0006C93EE15FF05E1F6DF91CF911F910F913A
:1009C000FF90EF900895EF92FF920F931F93CF93B4
:1009D000DF93CDB7DEB762970FB6F894DEBF0FBED8
:1009E000CDBF8C017A01F901DC011C968C917A83D0
:1009F00069835C834B835E834D8390819D87918166
:100A00009E8792819F87813029F4CE0101960E94B2
:100A1000960406C01C861B861A86198618861F82B5
:100A2000188AB701CE0101960E949204D801ED9177
:100A3000FC910484F585E02DBE016F5F7F4FC801F6
:100A4000099562960FB6F894DEBF0FBECDBFDF9159
:100A5000CF911F910F91FF90EF900895EF92FF9229
:100A60000F931F93CF93DF93CDB7DEB762970FB687
:100A7000F894DEBF0FBECDBF8C017A01F901DC0115
:100A80001C968C917A8369835C834B835E834D8350
:100A900090819D8791819E8792819F87813029F4E3
:100AA000CE0101960E94960406C01C861B861A86FB
:100AB000198618861F8283E0888BB701CE010196C4
:100AC0000E949204D801ED91FC910484F585E02DFB
:100AD000BE016F5F7F4FC801099562960FB6F8940B
:100AE000DEBF0FBECDBFDF91CF911F910F91FF9061
:100AF000EF9008950F931F930AE511E029E130E08C
:100B000042E050E065E070E08CE491E00E9470000B
:100B10001F910F9108951F920F920FB60F921124FB
:100B20002F933F938F939F93AF93BF938091F20145
:100B30009091F301A091F401B091F5013091F10190
:100B400023E0230F2D3720F40196A11DB11D05C010
:100B500026E8230F0296A11DB11D2093F101809379
:100B6000F2019093F301A093F401B093F501809109
:100B7000F6019091F701A091F801B091F901019669
:100B8000A11DB11D8093F6019093F701A093F80188
:100B9000B093F901BF91AF919F918F913F912F91A8
:100BA0000F900FBE0F901F9018952FB7F89460917B
:100BB000F2017091F3018091F4019091F5012FBF42
:100BC00008953FB7F8948091F6019091F701A091B4
:100BD000F801B091F90126B5A89B05C02F3F19F087
:100BE0000196A11DB11D3FBFBA2FA92F982F8827AD
:100BF000820F911DA11DB11DBC01CD0142E0660F08
:100C0000771F881F991F4A95D1F70895789484B566
:100C1000826084BD84B5816084BD85B5826085BDF8
:100C200085B5816085BDEEE6F0E0808181608083DE
:100C3000E1E8F0E0108280818260808380818160C1
:100C40008083E0E8F0E0808181608083E1EBF0E088
:100C5000808184608083E0EBF0E08081816080832C
:100C6000EAE7F0E080818460808380818260808315
:100C70008081816080838081806880831092C10040
:100C80000895CF92DF92EF92FF920F931F93CF932D
:100C9000DF936C01EB017B01E40EF51E00E010E038
:100CA000CE15DF0561F06991D601ED91FC910190BF
:100CB000F081E02DC6010995080F191FF1CFC80179
:100CC000DF91CF911F910F91FF90EF90DF90CF9028
:100CD00008956115710579F0FB0101900020E9F795
:100CE0003197AF01461B570BDC01ED91FC9102805F
:100CF000F381E02D099480E090E008950C9469065A
:100D0000FC0181E090E02081222311F080E090E05E
:100D1000089521E0FC01208308950E9406060E94A8
:100D2000A001CEE6D7E00E942C022097E1F30E94BA
:100D30006E07F9CFFC0124853585F901E05CFF4F92
:100D400080819181329620813181821B930B8F7338
:100D500099270895DC011C96ED91FC911D97DF0108
:100D6000A05CBF4F2D913C91119712968D919C9153
:100D700011972817390739F08D919C91E80FF91FC9
:100D8000808190E008958FEF9FEF0895FC01A48586
:100D9000B585FD01E05CFF4F208131813296808175
:100DA00091812817390779F080819181A80FB91FA7
:100DB0008C91208131812F5F3F4F2F7333273183F7
:100DC000208390E008958FEF9FEF0895FC0181A1AB
:100DD000882329F0A489B5898C9186FFFBCF11A2C5
:100DE00008950F931F93CF93DF93FC01A685B785DA
:100DF0008D01005C1F4FE8018881998101968F73F6
:100E00009927AD014E5B5F4FEA0128813981821736
:100E10009307D1F3E80128813981A20FB31F6C93A6
:100E2000A685B785A05CBF4F11969C938E93A6892B
:100E3000B7892C9181E090E0078C02C0880F991F40
:100E40000A94E2F7822B8C9381E081A30488F589D0
:100E5000E02D80818064808381E090E0DF91CF91FC
:100E60001F910F91089508951F920F920FB60F9240
:100E700011242F934F935F938F939F93EF93FF933F
:100E80008091C00082FD1CC02091C6008091A0020C
:100E90009091A10201968F7399274091A2025091DF
:100EA000A3028417950771F0E091A002F091A102CE
:100EB000E05AFD4F20839093A1028093A00202C0CC
:100EC0008091C600FF91EF919F918F915F914F911B
:100ED0002F910F900FBE0F901F9018958AEF91E001
:100EE0000E949A06892B11F00C94330708951F92E3
:100EF0000F920FB60F9211242F933F938F939F93CE
:100F0000EF93FF9320915C0230915D0280915E022D
:100F100090915F022817390731F48091C1008F7DCD
:100F20008093C10014C0E0915E02F0915F02E45E24
:100F3000FD4F208180915E0290915F0201968F7338
:100F4000992790935F0280935E022093C600FF91E1
:100F5000EF919F918F913F912F910F900FBE0F9026
:100F60001F901895CF92DF92EF92FF920F931F93ED
:100F7000CF93DF93EC016A017B014115514E61056E
:100F8000710509F1EC89FD8981E090E008A002C0BB
:100F9000880F991F0A94E2F7808360E079E08DE37F
:100FA00090E0A70196010E94B80D89019A010150B5
:100FB000110921093109369527951795079598014B
:100FC00001151041A8F0EC89FD89108260E874E8F1
:100FD0008EE190E0A70196010E94B80DDA01C901E7
:100FE0000197A109B109B695A795979587959C0199
:100FF000E889F9893083EA89FB89208319A2EE897F
:10100000FF89408181E090E09C010C8C02C0220F9E
:10101000331F0A94E2F7242B2083EE89FF89408155
:101020009C010D8C02C0220F331F0A94E2F7242B7F
:101030002083EE89FF8940819C010E8C02C0220F23
:10104000331F0A94E2F7242B2083EE89FF89208145
:101050000F8C02C0880F991F0A94E2F780958223B3
:101060008083DF91CF911F910F91FF90EF90DF90E0
:10107000CF900895EAEFF1E01382128288EE93E0B8
:10108000A0E0B0E084839583A683B78386E291E0F5
:101090009183808380E692E0958784878CE192E05B
:1010A0009787868785EC90E0918B808B84EC90E02D
:1010B000938B828B80EC90E0958B848B81EC90E01D
:1010C000978B868B82EC90E0918F808F86EC90E0FE
:1010D000938F828F84E0848F83E0858F87E0868F73
:1010E00085E0878F81E080A308954F925F926F9291
:1010F0007F92AF92BF92CF92DF92EF92FF920F93C7
:101100001F93CF93DF93FC0110821182128244233C
:10111000B9F18B01075F1F4F5C01EB012C96442E48
:10112000512C612C712CD8011397CC90D8012D91A2
:101130008D01CC20F9F02223E9F0822F90E0A0E08D
:10114000B0E09C01AD012F5F3F4F4F4F5F4FC30198
:10115000B2010E94940D9B01AC01D12CE12CF12C29
:10116000C701B6016F5F7F4F8F4F9F4F0E94940D55
:10117000D5018C93BFEFAB1ABB0A0C171D0799F66C
:10118000CF01DF91CF911F910F91FF90EF90DF90F2
:10119000CF90BF90AF907F906F905F904F900895E9
:1011A000CF92DF92EF92FF920F931F93CF93DF9333
:1011B0008C016B01EA017901121613061CF07A0109
:1011C000C0E0D0E0D801ED91FC910480F581E02DE4
:1011D000C8010995BE01660F771FC60FD71FB6015C
:1011E0006C0F7D1FF80173836283F686E58601909C
:1011F000F081E02D0284F385E02DC8010995009768
:1012000011F19C0140E050E060E472E48FE090E076
:101210000E94DA0DC090B502D090B602E090B702FD
:10122000F090B802C901DA018C159D05AE05BF0525
:1012300010F4D701C6018093B5029093B602A09333
:10124000B702B093B802C801DF91CF911F910F91FF
:10125000FF90EF90DF90CF900895CF92DF92EF92C2
:10126000FF920F931F93CF93DF932091A8023091A9
:10127000A902A9014F5F5F4F5093A9024093A802B2
:1012800026173707B4F1EC010E94D5058B019C01AC
:10129000E091A802F091A90288EE93E0E89FB001E6
:1012A000E99F700DF89F700D1124072E000C880B1C
:1012B000990BC090A402D090A502E090A602F090F5
:1012C000A702A90198012C193D094E095F090E9446
:1012D000B80D3A8329831092A9021092A8020E94A5
:1012E000D5056093A4027093A5028093A602909303
:1012F000A702DF91CF911F910F91FF90EF90DF90A8
:10130000CF900895AF92BF92CF92DF92EF92FF926B
:101310000F931F93CF93DF9300D01F92CDB7DEB70B
:101320007C01D62EF70183819481A581B681892B1A
:101330008A2B8B2BD1F00E94E1050091AA0210911B
:10134000AB022091AC023091AD02DC01CB01801BDD
:10135000910BA20BB30BF701038114812581368118
:1013600080179107A207B307E8F20E94E105609396
:10137000AA027093AB028093AC029093AD02D701A6
:101380001B96ED91FC911C97309751F0D701179661
:101390004D915D916D917C911A978D2D0995D82E67
:1013A0000091B0021091B1020115110551F1F8013F
:1013B000C484D70111968D919C9112978436910522
:1013C00008F41486D801ED91FC91A280B3804D2DD4
:1013D000B801CE0101960E947508F8014585568531
:1013E000628173819E012F5F3F4FC801F50109950E
:1013F000D8011C96CC921C9714960D911C911597B0
:10140000D3CF69E170E0C7010E942D090F900F90C2
:101410000F90DF91CF911F910F91FF90EF90DF9090
:10142000CF90BF90AF900895E2EBF2E08FEF808312
:1014300012821182148613868FEF9FEFDC0187835F
:101440009087A187B28708950F931F938B019C010A
:10145000809170008E7F809370008091B0008C7FAF
:101460008093B0008091B100877F8093B10080911C
:10147000B6008F7D8093B600809170008D7F809341
:1014800070008091B10084608093B1008091B100C0
:101490008C7F8093B10086E090E09093C0028093AF
:1014A000BF02011511052105310569F481E090E0C5
:1014B000A0E0B0E08093C8029093C902A093CA0252
:1014C000B093CB0208C00093C8021093C9022093C6
:1014D000CA023093CB025093C7024093C6021F91B9
:1014E0000F9108951092C2021092C3021092C4028A
:1014F0001092C5021092C1028091BF029091C00269
:101500008093B200E0E7F0E08081816080830895FD
:101510008091C2029091C302A091C402B091C50211
:101520000196A11DB11D8093C2029093C302A093A6
:10153000C402B093C5024091C2025091C3026091AF
:10154000C4027091C5028091C8029091C902A09115
:10155000CA02B091CB02481759076A077B07B0F05F
:101560008091C102811112C081E08093C10210926A
:10157000C2021092C3021092C4021092C502E091FE
:10158000C602F091C70209951092C10208951F92F8
:101590000F920FB60F9211242F933F934F935F93A7
:1015A0006F937F938F939F93AF93BF93EF93FF932B
:1015B0008091BF029091C0028093B2000E94880A7D
:1015C000FF91EF91BF91AF919F918F917F916F911B
:1015D0005F914F913F912F910F900FBE0F901F90F1
:1015E0001895F8940C94340E5058BB27AA270E94E3
:1015F0000C0B0C945D0C0E944F0C38F00E94560CA2
:1016000020F039F49F3F19F426F40C944C0C0EF49E
:10161000E095E7FB0C94460CE92F0E946E0C58F302
:10162000BA17620773078407950720F079F4A6F5C7
:101630000C94900C0EF4E0950B2EBA2FA02D0B01FC
:10164000B90190010C01CA01A0011124FF27591B07
:1016500099F0593F50F4503E68F11A16F040A22F0D
:10166000232F342F4427585FF3CF4695379527957E
:10167000A795F0405395C9F77EF41F16BA0B620B7D
:10168000730B840BBAF09150A1F0FF0FBB1F661FC4
:10169000771F881FC2F70EC0BA0F621F731F841F07
:1016A00048F4879577956795B795F7959E3F08F02D
:1016B000B0CF9395880F08F09927EE0F97958795EF
:1016C00008950E94750B0C945D0C0E94560C58F006
:1016D0000E944F0C40F029F45F3F29F00C94460C17
:1016E00051110C94910C0C944C0C0E946E0C68F3EC
:1016F0009923B1F3552391F3951B550BBB27AA27CB
:1017000062177307840738F09F5F5F4F220F331F04
:10171000441FAA1FA9F335D00E2E3AF0E0E832D0CC
:1017200091505040E695001CCAF72BD0FE2F29D0CF
:10173000660F771F881FBB1F261737074807AB07A1
:10174000B0E809F0BB0B802DBF01FF2793585F4F16
:101750003AF09E3F510578F00C94460C0C94910C95
:101760005F3FE4F3983ED4F3869577956795B795F8
:10177000F7959F5FC9F7880F911D9695879597F903
:101780000895E1E0660F771F881FBB1F621773077C
:101790008407BA0720F0621B730B840BBA0BEE1F91
:1017A00088F7E09508950E94DA0B6894B1110C94C3
:1017B000910C08950E94760C88F09F5798F0B92FED
:1017C0009927B751B0F0E1F0660F771F881F991F76
:1017D0001AF0BA95C9F714C0B13091F00E94900C7C
:1017E000B1E008950C94900C672F782F8827B85F8C
:1017F00039F0B93FCCF3869577956795B395D9F7CE
:101800003EF490958095709561957F4F8F4F9F4FD7
:101810000895E89409C097FB3EF4909580957095E3
:1018200061957F4F8F4F9F4F9923A9F0F92F96E92C
:10183000BB279395F695879577956795B795F111A1
:10184000F8CFFAF4BB0F11F460FF1BC06F5F7F4F3E
:101850008F4F9F4F16C0882311F096E911C0772350
:1018600021F09EE8872F762F05C0662371F096E859
:10187000862F70E060E02AF09A95660F771F881F28
:10188000DAF7880F9695879597F9089597F99F67E6
:1018900080E870E060E008959FEF80EC08950024F8
:1018A0000A941616170618060906089500240A94C5
:1018B00012161306140605060895092E0394000C4B
:1018C00011F4882352F0BB0F40F4BF2B11F460FFDA
:1018D00004C06F5F7F4F8F4F9F4F089557FD905803
:1018E000440F551F59F05F3F71F04795880F97FBE4
:1018F000991F61F09F3F79F087950895121613069E
:101900001406551FF2CF4695F1DF08C016161706CC
:101910001806991FF1CF8695710561050894089501
:10192000E894BB2766277727CB0197F908950E9493
:10193000AA0C0C945D0C0E944F0C38F00E94560CBF
:1019400020F0952311F00C94460C0C944C0C1124AF
:101950000C94910C0E946E0C70F3959FC1F3950F3F
:1019600050E0551F629FF001729FBB27F00DB11D23
:10197000639FAA27F00DB11DAA1F649F6627B00DB3
:10198000A11D661F829F2227B00DA11D621F739F9C
:10199000B00DA11D621F839FA00D611D221F749FAA
:1019A0003327A00D611D231F849F600D211D822FF1
:1019B000762F6A2F11249F5750409AF0F1F0882318
:1019C0004AF0EE0FFF1FBB1F661F771F881F915045
:1019D0005040A9F79E3F510580F00C94460C0C94A2
:1019E000910C5F3FE4F3983ED4F386957795679525
:1019F000B795F795E7959F5FC1F7FE2B880F911D6F
:101A00009695879597F908959F930E940E0D0F90D4
:101A100007FCEE5F0C94370D0C944C0C0E94760C76
:101A2000D8F3E894E0E0BB279F57F0F02AED3FE0C1
:101A300049EC06C0EE0FBB0F661F771F881F28F00A
:101A4000B23A62077307840728F0B25A620B730B2D
:101A5000840BE3959A9572F7803830F49A95BB0F12
:101A6000661F771F881FD2F790480C944D0DEF9397
:101A7000E0FF07C0A2EA2AED3FE049EC5FEB0E94DD
:101A80000C0B0E945D0C0F90039401FC9058E8E64B
:101A9000F0E00C94590D9F3F31F0915020F4879560
:101AA00077956795B795880F911D9695879597F9C6
:101AB00008959F938F937F936F93FF93EF939B0171
:101AC000AC010E94970CEF91FF910E946D0D2F9138
:101AD0003F914F915F910C94970CDF93CF931F939D
:101AE0000F93FF92EF92DF927B018C01689406C006
:101AF000DA2EEF010E94AA0CFE01E894A59125912F
:101B0000359145915591A6F3EF010E940C0BFE0112
:101B10009701A801DA9469F7DF90EF90FF900F9199
:101B20001F91CF91DF910895DB018F939F930E94C6
:101B3000000EBF91AF91A29F800D911DA39F900DAC
:101B4000B29F900D1124089597FB072E16F4009470
:101B500007D077FD09D00E940B0E07FC05D03EF49C
:101B6000909581959F4F0895709561957F4F089549
:101B7000A1E21A2EAA1BBB1BFD010DC0AA1FBB1F91
:101B8000EE1FFF1FA217B307E407F50720F0A21B03
:101B9000B30BE40BF50B661F771F881F991F1A9470
:101BA00069F760957095809590959B01AC01BD019A
:101BB000CF010895052E97FB1EF400940E94F10DAD
:101BC00057FD07D00E94B80D07FC03D04EF40C94CB
:101BD000F10D50954095309521953F4F4F4F5F4FF8
:101BE000089590958095709561957F4F8F4F9F4F89
:101BF00008950E94250EB7FF0895821B930B089548
:101C00000E94250EA59F900DB49F900DA49F800D5E
:101C1000911D11240895AA1BBB1B51E107C0AA1FE7
:101C2000BB1FA617B70710F0A61BB70B881F991F7D
:101C30005A95A9F780959095BC01CD010895EE0FB6
:101C4000FF1F0590F491E02D0994A29FB001B39F6E
:101C5000C001A39F700D811D1124911DB29F700DB5
:0C1C6000811D1124911D0895F894FFCF00
:101C6C00507265737320616E79206B65793A200030
:101C7C0000000000E3042E055D01360132015A011B
:101C8C00160400000000F10641069A06C606AA06D4
:021C9C00E6065A
:00000001FF
