:100000000C9445000C946D000C946D000C946D00E4
:100010000C946D000C946D000C946D000C946D00AC
:100020000C946D000C9470090C946D000C946D0090
:100030000C946D000C946D000C946D000C946D008C
:100040000C944E060C946D000C946D000C946D0095
:100050000C946D000C946D000C946D000C946D006C
:100060000C946D000C946D0005A84CCDB2D44EB923
:100070003836A9020C50B9918688083CA6AAAA2A4B
:10008000BE000000803F3D06BD0811241FBECFEF1B
:10009000D8E0DEBFCDBF11E0A0E0B1E0EEEBF9E1CA
:1000A00002C005900D92A231B107D9F725E0A2E177
:1000B000B1E001C01D92AE3EB207E1F710E0C5E429
:1000C000D0E004C02197FE010E94C80CC334D107C0
:1000D000C9F70E9411070C949A090C9400002F9202
:1000E0003F924F925F926F927F928F929F92AF92C8
:1000F000BF92CF92DF92EF92FF920F931F93CF9315
:10010000DF93CDB7DEB728970FB6F894DEBF0FBEEA
:10011000CDBF98878F834B01FC01E451FC4F718365
:1001200060833696518340833296318320833296A2
:10013000429FC001439F900D529F900D11249183C7
:100140008083EF81F885E051FC4F11821082EF81AE
:10015000F885138302831F01220C331C412C512C80
:10016000612C712CE852FC4FFE83ED83AD80BE8084
:1001700083E9C82ED12CE12CF12CF201ED56FF4F72
:10018000FA83E983C10184529C4F9C838B83EF8166
:10019000F885028113816114710441F00C0D1D1D5D
:1001A00021E030E0A701B401C5010EC089819A8128
:1001B0008C199D09080F191F20E030E0A701B40138
:1001C0008B819C818A199B090E94A801FFEFEF1A7D
:1001D000FF0A83E0C81AD10894E1A91AB108E9E13D
:1001E000EE16F104A1F6FBE44F0E511C8CE0281A28
:1001F0008EEF380A6A94672821F066246394712C84
:10020000B5CF28960FB6F894DEBF0FBECDBFDF91F5
:10021000CF911F910F91FF90EF90DF90CF90BF9003
:10022000AF909F908F907F906F905F904F903F9096
:100230002F900895CF93DF93DB0140E050E020E062
:1002400030E0EC01CA50DC4F68817981261737070E
:10025000ACF4FC0162817381FB01E40FF51F6C912A
:10026000608311966C911197618312966C9112972D
:1002700062832F5F3F4F4D5F5F4FE6CFDF91CF919E
:1002800008958F929F92AF92BF92CF92DF92EF929A
:10029000FF920F931F93CF93DF936B015A014C0191
:1002A00024E0820E911C00E010E07C01EEE0EE1AEA
:1002B000ECEFFE0AEC01CC50DC4FF701408151819C
:1002C00028813981429FC001439F900D529F900D1C
:1002D0001124081719075CF4A501B601C4010E9496
:1002E000B8010F5F1F4FF4E18F0E911CE6CFDF9135
:1002F000CF911F910F91FF90EF90DF90CF90BF9023
:10030000AF909F908F900895EF92FF920F931F935D
:10031000CF93DF937C0124E0E20EF11C00E010E0BB
:10032000EC01CA50DC4F88819981081719074CF4F9
:10033000C7010E94BE010F5F1F4F84E1E80EF11C50
:10034000F2CFDF91CF911F910F91FF90EF90089521
:100350000F931F93FC01518740873387228775874E
:10036000648717861686138B028B1F910F91089551
:10037000FC01718B608B5783468308950F931F9305
:10038000CF93DF9300D01F92CDB7DEB78C01DC0195
:100390001E962D913C911F971C968D919C911D97B7
:1003A000820F931F50966D917C9151970E944D0C36
:1003B000F801978786874285538560857185068019
:1003C000F781E02D9C01CE0101960995D801529646
:1003D000ED91FC915397898180838A8181838B8100
:1003E00082830F900F900F90DF91CF911F910F910B
:1003F0000895FC01858596850895CF93DF9300D0FD
:1004000000D000D0CDB7DEB7AB011C821D821E82AA
:10041000DC01ED91FC910190F081E02D19821A82AE
:100420001B829E012F5F3F4FBE016C5F7F4F09957E
:1004300026960FB6F894DEBF0FBECDBFDF91CF91E9
:10044000089580E991E00895239A08958CE291E05F
:100450000E9484018091BA059091BB05019690930A
:10046000BB058093BA050895CF93DF93EC0184E632
:10047000869FA001879F500D1124B901640F751F3D
:10048000072E000C880B990B0E94B40A9B01AC014B
:100490000E949E0920E030E04AE754E40E940A0AE4
:1004A00023EC35EF48E450E40E94400B0E94AD0B72
:1004B00020E030E040E852E40E94400B20E030E0D1
:1004C00040E852E40E949E090E947C0A6A83CE01A1
:1004D000DF91CF910895CF93DF9300D01F92CDB7D6
:1004E000DEB78091240181114DC084E291E00E9429
:1004F0000407892B09F446C01092160110921501C9
:100500008FEF8093190180931A0180931B018093D0
:100510001C0180931D0180931E0181E080931F01C7
:1005200010922101109220011092180110921701CF
:100530008091D2059091D305892B31F483E191E02C
:100540009093D3058093D205E091D005F091D10529
:10055000309721F083E191E09583848383E191E0FA
:100560009093D1058093D00510922301109222011F
:1005700084E091E0909314018093130184E291E070
:100580000E940D0720E030E042E350E064E275E0B5
:1005900083E191E00E94790746E252E06AE070E070
:1005A00080E090E00E94CD080E941B0919821A8207
:1005B0008FEF8B83BE016F5F7F4F8CE291E00E94D3
:1005C0001A0144E352E068EE73E08CE291E00E948D
:1005D00041010F900F900F90DF91CF91089560919E
:1005E000D40584ED95E00C942B089F92AF92BF92B6
:1005F000CF92DF92EF92FF920F931F93CF93DF93EF
:10060000FC01C080D18025B12860B22E95B1977FC2
:1006100095B961858681062F081B802F0683778513
:10062000A281B38134854585568599249394930E90
:100630004F5F5F5FF780E084C285D385F60110814C
:10064000A12C0A2D2A2D3A2D3081112788943111A1
:10065000380F08F43FEF8195889490FC130F17959D
:10066000889491FC130F1795889492FC130F17959B
:10067000889493FC130F1795889494FC130F179587
:10068000889495FC130F1795889496FC130F179573
:10069000889497FC130F17958894032F9110012FBE
:1006A000860F102F002CB5B800C000C017FF95B9F9
:1006B00031810027889400C0002C95B931113F0D7D
:1006C00000C0002CB5B800C000C016FF95B908F4F2
:1006D0003FEFF194889400C0002C95B940FD030FC2
:1006E00000C0002CB5B800C000C015FF95B9079533
:1006F000889441FD030F00C0002C95B9079588949C
:1007000000C0002CB5B800C000C014FF95B942FD70
:10071000030F0795889400C0002C95B943FD030F83
:1007200000C0002CB5B800C000C013FF95B90795F4
:10073000889444FD030F00C0002C95B90795889458
:1007400000C0002CB5B800C000C012FF95B945FD2F
:10075000030F0795889400C0002C95B946FD030F40
:1007600000C0002CB5B800C000C011FF95B90795B6
:10077000889447FD030F00C0002C95B90795889415
:1007800000C0002CB5B800C000C010FF95B9132FF1
:100790004111102FFC0E00C0002C95B900C000C004
:1007A000002CB5B800C000C017FF95B932810027F2
:1007B000889400C0002C95B931113E0D00C0002C6A
:1007C000B5B800C000C016FF95B908F43FEFE70FB9
:1007D000F11D00C0002C95B950FD030F00C0002C86
:1007E000B5B800C000C015FF95B90795889451FDB4
:1007F000030F00C0002C95B90795889400C0002C09
:10080000B5B800C000C014FF95B952FD030F07959D
:10081000889400C0002C95B953FD030F00C0002C34
:10082000B5B800C000C013FF95B90795889454FD72
:10083000030F00C0002C95B90795889400C0002CC8
:10084000B5B800C000C012FF95B955FD030F07955C
:10085000889400C0002C95B956FD030F00C0002CF1
:10086000B5B800C000C011FF95B90795889457FD31
:10087000030F00C0002C95B90795889400C0002C88
:10088000B5B800C000C010FF95B9132F5111102F3B
:10089000E19400C0002C95B9ED0E00C000C0B5B8C1
:1008A00000C000C017FF95B930810027889400C0B0
:1008B000002C95B93111380F00C0002CB5B800C01C
:1008C00000C016FF95B908F43FEF8195889400C0E9
:1008D000002C95B990FC030F00C0002CB5B800C0E7
:1008E00000C015FF95B90795889491FC030F00C0CF
:1008F000002C95B90795889400C0002CB5B800C0AD
:1009000000C014FF95B992FC030F0795889400C0AE
:10091000002C95B993FC030F00C0002CB5B800C0A3
:1009200000C013FF95B90795889494FC030F00C08D
:10093000002C95B90795889400C0002CB5B800C06C
:1009400000C012FF95B995FC030F0795889400C06D
:10095000002C95B996FC030F00C0002CB5B800C060
:1009600000C011FF95B90795889497FC030F00C04C
:10097000002C95B90795889400C0002CB5B800C02C
:1009800000C010FF95B9132F9110102F860F00C0D3
:10099000002C95B9119709F086CEDF91CF911F9168
:1009A0000F91FF90EF90DF90CF90BF90AF909F900E
:1009B00008950F931F93CF93DF93EC018B010E9457
:1009C000A4062F853889621B730B6A307105B8F352
:1009D000F894C8010E94F502D8011296ED91FC919D
:1009E000139720EE31E0DF010E94A20CAB01BC01A5
:1009F000A4E07695679557954795AA95D1F780E03D
:100A000090E09C01AAE9EA9F0E0E211DFA9F200D9D
:100A1000311D11242F0F311D420F531F611D711DF8
:100A2000493EB3E05B076105710508F434C0485ED8
:100A300053406109710922E076956795579547956E
:100A40002A95D1F727E0429F040E811D529F800D09
:100A5000911D1124850F911D2091BC0530E0420F9E
:100A6000531F480F591F8091BE059091BF05A0915B
:100A7000C005B091C105252F3327820F931FA11DFB
:100A8000B11D8093BE059093BF05A093C005B093A0
:100A9000C1054093BC0578940E94A406788B6F87AB
:100AA000DF91CF911F910F910895FC01118A108A57
:100AB0000895EF92FF920F931F93CF93DF93EC0172
:100AC000909112019F5F292F27702093120190FFB0
:100AD00002C090E801C090E021FD9064247009F00C
:100AE000906220E1290FFE013C967E018FE0E80E26
:100AF000F11C00E011E06191662331F070E0C80163
:100B00000E944D0C6F5F01C060E0DF0114976C9391
:100B1000322F369F030E30E0311D1124CF0107978D
:100B2000311103C0EC01188203C03150EC0138834D
:100B3000662311F061506C93EE15FF05E1F6DF912D
:100B4000CF911F910F91FF90EF900895EF92FF9238
:100B50000F931F93CF93DF93CDB7DEB762970FB696
:100B6000F894DEBF0FBECDBF8C017A01F901DC0124
:100B70001C968C917A8369835C834B835E834D835F
:100B800090819D8791819E8792819F87813029F4F2
:100B9000CE0101960E94590506C01C861B861A8646
:100BA000198618861F82188AB701CE0101960E9405
:100BB0005505D801ED91FC910484F585E02DBE0129
:100BC0006F5F7F4FC801099562960FB6F894DEBF3C
:100BD0000FBECDBFDF91CF911F910F91FF90EF908E
:100BE0000895EF92FF920F931F93CF93DF93CDB7AA
:100BF000DEB762970FB6F894DEBF0FBECDBF8C0193
:100C00007A01F901DC011C968C917A8369835C83FB
:100C10004B835E834D8390819D8791819E879281D6
:100C20009F87813029F4CE0101960E94590506C0A4
:100C30001C861B861A86198618861F8283E0888B7D
:100C4000B701CE0101960E945505D801ED91FC91A6
:100C50000484F585E02DBE016F5F7F4FC8010995C3
:100C600062960FB6F894DEBF0FBECDBFDF91CF9175
:100C70001F910F91FF90EF9008950F931F9304E23F
:100C800015E029E130E042E050E06AE070E08CE2FB
:100C900091E00E946F001F910F9108951F920F9293
:100CA0000FB60F9211242F933F938F939F93AF937F
:100CB000BF938091BE059091BF05A091C005B091F2
:100CC000C1053091BD0523E0230F2D3720F4019697
:100CD000A11DB11D05C026E8230F0296A11DB11D5F
:100CE0002093BD058093BE059093BF05A093C005DA
:100CF000B093C1058091C2059091C305A091C40530
:100D0000B091C5050196A11DB11D8093C2059093B8
:100D1000C305A093C405B093C505BF91AF919F9142
:100D20008F913F912F910F900FBE0F901F901895AC
:100D30002FB7F8946091BE057091BF058091C005F2
:100D40009091C1052FBF08953FB7F8948091C205D7
:100D50009091C305A091C405B091C50526B5A89B87
:100D600005C02F3F19F00196A11DB11D3FBFBA2F3D
:100D7000A92F982F8827820F911DA11DB11DBC019D
:100D8000CD0142E0660F771F881F991F4A95D1F762
:100D90000895789484B5826084BD84B5816084BDF3
:100DA00085B5826085BD85B5816085BDEEE6F0E0E4
:100DB000808181608083E1E8F0E010828081826040
:100DC0008083808181608083E0E8F0E080818160C1
:100DD0008083E1EBF0E0808184608083E0EBF0E0F1
:100DE000808181608083EAE7F0E080818460808395
:100DF000808182608083808181608083808180683F
:100E000080831092C1000895FC0181E090E0208170
:100E1000222311F080E090E0089521E0FC0120837E
:100E200008950E94C9060E946B02C0E0D0E00E94B3
:100E3000EF022097E1F30E940000F9CF4F925F92FA
:100E40006F927F92AF92BF92CF92DF92EF92FF921A
:100E50000F931F93CF93DF93FC01108211821282B4
:100E60004423B9F18B01075F1F4F5C01EB012C9606
:100E7000442E512C612C712CD8011397CC90D801A1
:100E80002D918D01CC20F9F02223E9F0822F90E002
:100E9000A0E0B0E09C01AD012F5F3F4F4F4F5F4F8F
:100EA000C301B2010E943D0C9B01AC01D12CE12C8D
:100EB000F12CC701B6016F5F7F4F8F4F9F4F0E948C
:100EC0003D0CD5018C93BFEFAB1ABB0A0C171D0765
:100ED00099F6CF01DF91CF911F910F91FF90EF9085
:100EE000DF90CF90BF90AF907F906F905F904F90CA
:100EF0000895CF92DF92EF92FF920F931F93CF93BB
:100F0000DF938C016B01EA017901121613061CF0C4
:100F10007A01C0E0D0E0D801ED91FC910480F58128
:100F2000E02DC8010995BE01660F771FC60FD71FB8
:100F3000B6016C0F7D1FF80173836283F686E58628
:100F40000190F081E02D0284F385E02DC801099520
:100F5000009711F19C0140E050E060E472E48FE002
:100F600090E00E94830CC090D705D090D805E09007
:100F7000D905F090DA05C901DA018C159D05AE0599
:100F8000BF0510F4D701C6018093D7059093D8050B
:100F9000A093D905B093DA05C801DF91CF911F91D5
:100FA0000F91FF90EF90DF90CF900895CF92DF9256
:100FB000EF92FF920F931F93CF93DF932091CA0577
:100FC0003091CB05A9014F5F5F4F5093CB05409304
:100FD000CA0526173707B4F1EC010E9498068B0169
:100FE0009C01E091CA05F091CB0588EE93E0E89F63
:100FF000B001E99F700DF89F700D1124072E000CB1
:10100000880B990BC090C605D090C705E090C80525
:10101000F090C905A90198012C193D094E095F09F5
:101020000E94610C3A8329831092CB051092CA0565
:101030000E9498066093C6057093C7058093C80503
:101040009093C905DF91CF911F910F91FF90EF9081
:10105000DF90CF900895AF92BF92CF92DF92EF9240
:10106000FF920F931F93CF93DF9300D01F92CDB7C2
:10107000DEB77C01D62EF70183819481A581B681EC
:10108000892B8A2B8B2BD1F00E94A4060091CC05D2
:101090001091CD052091CE053091CF05DC01CB011B
:1010A000801B910BA20BB30BF701038114812581E7
:1010B000368180179107A207B307E8F20E94A406C1
:1010C0006093CC057093CD058093CE059093CF05AA
:1010D000D7011B96ED91FC911C97309751F0D701E9
:1010E00017964D915D916D917C911A978D2D099573
:1010F000D82E0091D2051091D3050115110551F19B
:10110000F801C484D70111968D919C911297843671
:10111000910508F41486D801ED91FC91A280B3806A
:101120004D2DB801CE0101960E941E07F80145859C
:101130005685628173819E012F5F3F4FC801F50183
:101140000995D8011C96CC921C9714960D911C9170
:101150001597D3CF69E170E0C7010E94D6070F90C1
:101160000F900F90DF91CF911F910F91FF90EF9013
:10117000DF90CF90BF90AF900895E4EDF5E08FEF52
:10118000808312821182148613868FEF9FEFDC0119
:1011900087839087A187B28708950F931F938B0150
:1011A0009C01809170008E7F809370008091B000D0
:1011B0008C7F8093B0008091B100877F8093B100D5
:1011C0008091B6008F7D8093B600809170008D7FF6
:1011D000809370008091B10084608093B100809111
:1011E000B1008C7F8093B10086E090E09093E2059F
:1011F0008093E105011511052105310569F481E0B0
:1012000090E0A0E0B0E08093EA059093EB05A09316
:10121000EC05B093ED0508C00093EA051093EB05CB
:101220002093EC053093ED055093E9054093E805D4
:101230001F910F9108951092E4051092E505109208
:10124000E6051092E7051092E3058091E105909183
:10125000E2058093B200E0E7F0E080818160808366
:1012600008958091E4059091E505A091E605B0917F
:10127000E7050196A11DB11D8093E4059093E50556
:10128000A093E605B093E7054091E4055091E5058C
:101290006091E6057091E7058091EA059091EB0574
:1012A000A091EC05B091ED05481759076A077B0737
:1012B000B0F08091E305811112C081E08093E305D5
:1012C0001092E4051092E5051092E6051092E705EC
:1012D000E091E805F091E90509951092E30508957C
:1012E0001F920F920FB60F9211242F933F934F939B
:1012F0005F936F937F938F939F93AF93BF93EF937E
:10130000FF938091E1059091E2058093B2000E94E5
:101310003109FF91EF91BF91AF919F918F917F9193
:101320006F915F914F913F912F910F900FBE0F9052
:101330001F901895F8940C94DD0C5058BB27AA27E1
:101340000E94B5090C94060B0E94F80A38F00E941E
:10135000FF0A20F039F49F3F19F426F40C94F50AA3
:101360000EF4E095E7FB0C94EF0AE92F0E94170BAF
:1013700058F3BA17620773078407950720F079F4CA
:10138000A6F50C94390B0EF4E0950B2EBA2FA02D78
:101390000B01B90190010C01CA01A0011124FF2722
:1013A000591B99F0593F50F4503E68F11A16F0401D
:1013B000A22F232F342F4427585FF3CF469537951C
:1013C0002795A795F0405395C9F77EF41F16BA0BE1
:1013D000620B730B840BBAF09150A1F0FF0FBB1F8F
:1013E000661F771F881FC2F70EC0BA0F621F731FD8
:1013F000841F48F4879577956795B795F7959E3F35
:1014000008F0B0CF9395880F08F09927EE0F9795C5
:10141000879508950E941E0A0C94060B0E94FF0AED
:1014200058F00E94F80A40F029F45F3F29F00C942C
:10143000EF0A51110C943A0B0C94F50A0E94170B09
:1014400068F39923B1F3552391F3951B550BBB27F3
:10145000AA2762177307840738F09F5F5F4F220F38
:10146000331F441FAA1FA9F335D00E2E3AF0E0E82F
:1014700032D091505040E695001CCAF72BD0FE2F79
:1014800029D0660F771F881FBB1F2617370748070D
:10149000AB07B0E809F0BB0B802DBF01FF279358C5
:1014A0005F4F3AF09E3F510578F00C94EF0A0C9490
:1014B0003A0B5F3FE4F3983ED4F3869577956795B2
:1014C000B795F7959F5FC9F7880F911D96958795FA
:1014D00097F90895E1E0660F771F881FBB1F621719
:1014E00073078407BA0720F0621B730B840BBA0BD7
:1014F000EE1F88F7E09508950E94830A6894B11161
:101500000C943A0B08950E941F0B88F09F5798F097
:10151000B92F9927B751B0F0E1F0660F771F881FF8
:10152000991F1AF0BA95C9F714C0B13091F00E9412
:10153000390BB1E008950C94390B672F782F882769
:10154000B85F39F0B93FCCF3869577956795B39539
:10155000D9F73EF490958095709561957F4F8F4FA8
:101560009F4F0895E89409C097FB3EF490958095AD
:10157000709561957F4F8F4F9F4F9923A9F0F92F59
:1015800096E9BB279395F695879577956795B795D7
:10159000F111F8CFFAF4BB0F11F460FF1BC06F5FBD
:1015A0007F4F8F4F9F4F16C0882311F096E911C0CF
:1015B000772321F09EE8872F762F05C0662371F0F0
:1015C00096E8862F70E060E02AF09A95660F771F04
:1015D000881FDAF7880F9695879597F9089597F9F8
:1015E0009F6780E870E060E008959FEF80EC0895C9
:1015F00000240A94161617061806090608950024F2
:101600000A9412161306140605060895092E03946B
:10161000000C11F4882352F0BB0F40F4BF2B11F4DF
:1016200060FF04C06F5F7F4F8F4F9F4F089557FD3E
:101630009058440F551F59F05F3F71F04795880F40
:1016400097FB991F61F09F3F79F0879508951216D7
:1016500013061406551FF2CF4695F1DF08C0161683
:1016600017061806991FF1CF869571056105089434
:101670000895E894BB2766277727CB0197F908954B
:101680000E94530B0C94060B0E94F80A38F00E943B
:10169000FF0A20F0952311F00C94EF0A0C94F50A40
:1016A00011240C943A0B0E94170B70F3959FC1F311
:1016B000950F50E0551F629FF001729FBB27F00D00
:1016C000B11D639FAA27F00DB11DAA1F649F662755
:1016D000B00DA11D661F829F2227B00DA11D621FA4
:1016E000739FB00DA11D621F839FA00D611D221F5E
:1016F000749F3327A00D611D231F849F600D211D42
:10170000822F762F6A2F11249F5750409AF0F1F0C4
:1017100088234AF0EE0FFF1FBB1F661F771F881F2D
:1017200091505040A9F79E3F510580F00C94EF0A6C
:101730000C943A0B5F3FE4F3983ED4F3869577958B
:101740006795B795F795E7959F5FC1F7FE2B880FD3
:10175000911D9695879597F908959F930E94B70BD1
:101760000F9007FCEE5F0C94E00B0C94F50A0E94BE
:101770001F0BD8F3E894E0E0BB279F57F0F02AED69
:101780003FE049EC06C0EE0FBB0F661F771F881FB6
:1017900028F0B23A62077307840728F0B25A620B46
:1017A000730B840BE3959A9572F7803830F49A9511
:1017B000BB0F661F771F881FD2F790480C94F60B5B
:1017C000EF93E0FF07C0A2EA2AED3FE049EC5FEBB0
:1017D0000E94B5090E94060B0F90039401FC9058DB
:1017E000E8E6F0E00C94020C9F3F31F0915020F4B9
:1017F000879577956795B795880F911D96958795ED
:1018000097F908959F938F937F936F93FF93EF932F
:101810009B01AC010E94400BEF91FF910E94160CBE
:101820002F913F914F915F910C94400BDF93CF9399
:101830001F930F93FF92EF92DF927B018C016894CC
:1018400006C0DA2EEF010E94530BFE01E894A59129
:101850002591359145915591A6F3EF010E94B50967
:10186000FE019701A801DA9469F7DF90EF90FF90ED
:101870000F911F91CF91DF910895DB018F939F937B
:101880000E94A90CBF91AF91A29F800D911DA39FB3
:10189000900DB29F900D1124089597FB072E16F41A
:1018A000009407D077FD09D00E94B40C07FC05D046
:1018B0003EF4909581959F4F0895709561957F4F67
:1018C0000895A1E21A2EAA1BBB1BFD010DC0AA1F81
:1018D000BB1FEE1FFF1FA217B307E407F50720F099
:1018E000A21BB30BE40BF50B661F771F881F991F14
:1018F0001A9469F760957095809590959B01AC015D
:10190000BD01CF010895052E97FB1EF400940E949F
:101910009A0C57FD07D00E94610C07FC03D04EF4CF
:101920000C949A0C50954095309521953F4F4F4F10
:101930005F4F089590958095709561957F4F8F4F7B
:101940009F4F08950E94CE0CB7FF0895821B930B02
:1019500008950E94CE0CA59F900DB49F900DA49F5A
:10196000800D911D11240895AA1BBB1B51E107C0D6
:10197000AA1FBB1FA617B70710F0A61BB70B881F1F
:10198000991F5A95A9F780959095BC01CD010895AE
:10199000EE0FFF1F0590F491E02D0994A29FB00176
:1019A000B39FC001A39F700D811D1124911DB29F93
:0E19B000700D811D1124911D0895F894FFCF34
:1019BE0000000000A605F1052402FD01F901210237
:0219CE00D9043A
:00000001FF
