:100000000C9445000C946D000C946D000C946D00E4
:100010000C946D000C946D000C946D000C946D00AC
:100020000C946D000C944C0C0C946D000C946D00B1
:100030000C946D000C946D000C946D000C946D008C
:100040000C94DC080C946D000C946D000C946D0005
:100050000C946D000C946D000C946D000C946D006C
:100060000C946D000C946D0005A84CCDB2D44EB923
:100070003836A9020C50B9918688083CA6AAAA2A4B
:10008000BE000000803FCB08990B11241FBECFEFAC
:10009000D8E0DEBFCDBF11E0A0E0B1E0EEE3F0E2DA
:1000A00002C005900D92A631B107D9F727E0A6E16D
:1000B000B1E001C01D92A035B207E1F710E0C5E440
:1000C000D0E004C02197FE010E940810C334D1077C
:1000D000C9F70E949F090C94D20C0C9400002F9237
:1000E0003F924F925F926F927F928F929F92AF92C8
:1000F000BF92CF92DF92EF92FF920F931F93CF9315
:10010000DF93CDB7DEB728970FB6F894DEBF0FBEEA
:10011000CDBF98878F834B01FC01E65BFA4F71835B
:1001200060833696518340833296318320833296A2
:10013000429FC001439F900D529F900D11249183C7
:100140008083EF81F885E25BFA4F11821082EF81A4
:10015000F885138302831F01220C331C412C512C80
:10016000612C712CE15DFA4FFE83ED83AD80BE8082
:1001700083E9C82ED12CE12CF12CF201ED56FF4F72
:10018000FA83E983C1018D5C9A4F9C838B83EF8155
:10019000F885028113816114710441F00C0D1D1D5D
:1001A00021E030E0A701B401C5010EC089819A8128
:1001B0008C199D09080F191F20E030E0A701B40138
:1001C0008B819C818A199B090E949D02FFEFEF1A87
:1001D000FF0A83E0C81AD1089BE1A91AB108E9E136
:1001E000EE16F104A1F6FBE44F0E511C8DE5281A22
:1001F0008DEF380A6A94672821F066246394712C85
:10020000B5CF28960FB6F894DEBF0FBECDBFDF91F5
:10021000CF911F910F91FF90EF90DF90CF90BF9003
:10022000AF909F908F907F906F905F904F903F9096
:100230002F900895CF93DF93DB0140E050E020E062
:1002400030E0EC01CC5ADA4F688179812617370704
:10025000ACF4FC0162817381FB01E40FF51F6C912A
:10026000608311966C911197618312966C9112972D
:1002700062832F5F3F4F4D5F5F4FE6CFDF91CF919E
:1002800008958F929F92AF92BF92CF92DF92EF929A
:10029000FF920F931F93CF93DF936B015A014C0191
:1002A00024E0820E911C00E010E07C01E0EBEE1AED
:1002B000EAEFFE0AEC01CE5ADA4FF7014081518194
:1002C00028813981429FC001439F900D529F900D1C
:1002D0001124081719075CF4A501B601C4010E9496
:1002E000AF020F5F1F4FFBE18F0E911CE6CFDF9136
:1002F000CF911F910F91FF90EF90DF90CF90BF9023
:10030000AF909F908F9008950F931F93CF93DF939B
:10031000DB01EA01B901A801C0FF14C029E12C9F4B
:10032000F0012D9FF00D1124EA1BFB0B7896ABE139
:10033000AE9F9001AF9F300D11242C5F3F4F820F75
:10034000931F11C0E9E1EC9F9001ED9F300D112446
:10035000A20FB31F2BE12A9FF0012B9FF00D112458
:1003600034968E0F9F1FDF91CF911F910F910C94A8
:10037000AF022F923F924F925F926F927F928F9235
:100380009F92AF92BF92CF92DF92EF92FF920F9324
:100390001F93CF93DF93CDB7DEB72C970FB6F894AA
:1003A000DEBF0FBECDBF3C014B011A0129011A87E8
:1003B000098743EA52E0249FC001259F900D349F96
:1003C000900D11246BE1689DA001699D500D1124D1
:1003D0009C01241B350B3E832D839A01280F391F66
:1003E00038872F83A12CB12C28143904DCF1820129
:1003F0001C861B868F8198858A199B099C012C5F1E
:100400003F4F3A8329838D819E818A0D9B1D9C01DC
:1004100024573D4F3C832B8329853A85201731078C
:10042000D4F0A601B70100FF03C08B819C8102C0FC
:1004300089819A812B853C85820F931F860D971D9C
:100440000E94AF020F5F1F4F2B853C852D553D4FFE
:100450003C872B87E1CF3FEF831A930A8BE1A81AE1
:10046000B108C2CF2C960FB6F894DEBF0FBECDBF39
:10047000DF91CF911F910F91FF90EF90DF90CF9080
:10048000BF90AF909F908F907F906F905F904F90B4
:100490003F902F900895EF92FF920F931F93CF9369
:1004A000DF937C0124E0E20EF11C00E010E0EC019F
:1004B000CC5ADA4F88819981081719074CF4C70183
:1004C0000E94B5020F5F1F4F8BE1E80EF11CF2CFC7
:1004D000DF91CF911F910F91FF90EF900895FB0155
:1004E000DA01B90140FF15C029E12A9FA0012B9F25
:1004F000500D11244E1B5F0B485E5F4FEBE1E49FF4
:100500009001E59F300D11242C5F3F4F820F931F08
:1005100012C049E14A9F90014B9F300D1124E20F18
:10052000F31F2BE12E9FA0012F9F500D11244C5F34
:100530005F4F840F951F0C942F030F931F93FC01A3
:10054000538742873587248777876687118A108A81
:10055000158B048B108E178A1F910F910895FC0143
:10056000738B628B578346830895CF92DF92EF920D
:10057000FF920F931F93CF93DF9300D01F92CDB7BD
:10058000DEB78C01DC0156968C91569750962D91D2
:100590003C9151971C96CD90DC901D971A96ED904A
:1005A000FC901B97882381F11896ED91FC91199787
:1005B000A601B701CE0101960995D8015496ED9197
:1005C000FC915597898180838A8181838B81828385
:1005D00057962D913C9158971E968D919C911F97FF
:1005E000820F931F58969C938E93579759962D91EF
:1005F0003C915A978217930734F158961C921E9299
:10060000579756961C921FC0F80186859785820FD2
:10061000931F628973890E94850F918B808B06805E
:10062000F781E02D9C01A601B701CE010196099545
:10063000D8015496ED91FC915597898180838A81E8
:1006400081838B8182830F900F900F90DF91CF91E8
:100650001F910F91FF90EF90DF90CF900895FC01D4
:10066000718B608B0895FC01858596850895CF93E5
:10067000DF9300D000D000D0CDB7DEB7AB011C8235
:100680001D821E82DC01ED91FC910190F081E02D34
:1006900019821A821B829E012F5F3F4FBE016C5F41
:1006A0007F4F099526960FB6F894DEBF0FBECDBFDB
:1006B000DF91CF91089580E991E00895239A0895FC
:1006C00080E391E00E944B0280911C0790911D07EE
:1006D000019690931D0780931C070895CF93DF9395
:1006E000EC0184E6869FA001879F500D1124B9017B
:1006F000640F751F072E000C880B990B0E94EC0DE0
:100700009B01AC010E94D60C20E030E44CE955E49A
:100710000E94420D23EC35EF48E450E40E94780E2D
:100720000E94E50E20E030E040E852E40E94780E9E
:1007300020E030E040E852E40E94D60C0E94B40D64
:100740006A83CE01DF91CF9108954F925F926F92AD
:100750007F928F929F92AF92BF92CF92DF92EF9251
:10076000FF92CF93DF93EC0184E6869FA001879FE1
:10077000500D1124B901640F751F072E000C880B52
:10078000990B0E94EC0D9B01AC010E94D60C20E05D
:1007900030E44CE955E40E94420D23EC35EF48E487
:1007A00050E40E94780E0E94E50E20E030E040E820
:1007B0005FE30E94D60C20E030E040E05FE30E945F
:1007C000780E4B015C0120E030E0A9010E94780E18
:1007D0002B013C01A501940160E070E080E89FE3FB
:1007E0000E94D50C6B017C0120E030E04FE753E420
:1007F0000E94780E9B01AC01C301B2010E94D60C8D
:1008000020E030E040E85EE30E94780E0E94BB0DDD
:10081000688320E030E045E253E4C701B6010E945E
:10082000780E9B01AC01C301B2010E94D60C20E0FE
:1008300030E040E85EE30E94780E0E94BB0D6983C1
:1008400020E030E04FE753E4C501B4010E94780E88
:100850004B015C0120E030E0A901C701B6010E9414
:10086000780E9B01AC01C501B4010E94D60C20E0BA
:1008700030E040E85EE30E94780E0E94BB0D6A8380
:10088000CE01DF91CF91FF90EF90DF90CF90BF909E
:10089000AF909F908F907F906F905F904F90089552
:1008A000CF92DF92EF92FF920F931F93CF93DF933C
:1008B000EC017B016A018901B901330F880B990BA7
:1008C0000E94EC0D9B01AC010E94D60C20E030E4AC
:1008D0004CE155E40E94420D23EC35EF48E450E42E
:1008E0000E94780E0E94E50E20E030E040E852E4DD
:1008F0000E94780E20E030E040E852E40E94D60CDE
:100900000E94B40D6A836883698329E130E040E086
:1009100050E060E070E0CB010E94D8099801260FFA
:10092000371FA601B70180E391E00E946F02CE015C
:10093000DF91CF911F910F91FF90EF90DF90CF90BB
:100940000895CF92DF92EF92FF920F931F93CF9370
:10095000DF9300D01F92CDB7DEB784E690E00E940F
:10096000AC098091280181114DC088E291E00E947C
:100970009209892B09F446C010921A0110921901AC
:100980008FEF80931D0180931E0180931F01809340
:100990002001809321018093220181E08093230133
:1009A000109225011092240110921C0110921B013B
:1009B0008091340790913507892B31F487E191E0DC
:1009C0009093350780933407E0913207F091330715
:1009D000309721F087E191E09583848387E191E06E
:1009E00090933307809332071092270110922601CB
:1009F00088E091E0909318018093170188E291E0DC
:100A00000E949B0920E030E042E350E066E876E097
:100A100087E191E00E94550A40E653E065E070E00E
:100A200080E090E00E94A90B0E94F70B19821A82C5
:100A30008FEF8B83BE016F5F7F4F80E391E00E9459
:100A40001A014EE653E068E873E180E391E00E940A
:100A5000410185EAC82E83E0D82E98E8E92E93E17B
:100A6000F92E01E010E020E030E04FE050E060E0DF
:100A700070E080E391E00E94B90100E514E028E80D
:100A800033E140E050E065E070E080E391E00E94F7
:100A9000840128E833E140E050E06CE070E080E35E
:100AA00091E00E94840128E833E140E050E066E1F3
:100AB00070E080E391E00E94840128E833E141E0A6
:100AC00050E069E070E080E391E00E94840128E852
:100AD00033E141E050E061E170E080E391E00E94A9
:100AE00084010F900F900F90DF91CF911F910F9184
:100AF000FF90EF90DF90CF9008956091360786E3E6
:100B000097E00C94070B9F92AF92BF92CF92DF9227
:100B1000EF92FF920F931F93CF93DF93FC01C0805E
:100B2000D18025B12860B22E95B1977F95B96185A6
:100B30008681062F081B802F06837785A281B381CB
:100B400034854585568599249394930E4F5F5F5F56
:100B5000F780E084C285D385F6011081A12C0A2D8F
:100B60002A2D3A2D3081112788943111380F08F43D
:100B70003FEF8195889490FC130F1795889491FC12
:100B8000130F1795889492FC130F1795889493FC74
:100B9000130F1795889494FC130F1795889495FC60
:100BA000130F1795889496FC130F1795889497FC4C
:100BB000130F17958894032F9110012F860F102F74
:100BC000002CB5B800C000C017FF95B931810027CF
:100BD000889400C0002C95B931113F0D00C0002C45
:100BE000B5B800C000C016FF95B908F43FEFF19406
:100BF000889400C0002C95B940FD030F00C0002C64
:100C0000B5B800C000C015FF95B90795889441FD9F
:100C1000030F00C0002C95B90795889400C0002CE4
:100C2000B5B800C000C014FF95B942FD030F079589
:100C3000889400C0002C95B943FD030F00C0002C20
:100C4000B5B800C000C013FF95B90795889444FD5E
:100C5000030F00C0002C95B90795889400C0002CA4
:100C6000B5B800C000C012FF95B945FD030F079548
:100C7000889400C0002C95B946FD030F00C0002CDD
:100C8000B5B800C000C011FF95B90795889447FD1D
:100C9000030F00C0002C95B90795889400C0002C64
:100CA000B5B800C000C010FF95B9132F4111102F27
:100CB000FC0E00C0002C95B900C000C0002CB5B8D7
:100CC00000C000C017FF95B932810027889400C08A
:100CD000002C95B931113E0D00C0002CB5B800C0F4
:100CE00000C016FF95B908F43FEFE70FF11D00C0F3
:100CF000002C95B950FD030F00C0002CB5B800C002
:100D000000C015FF95B90795889451FD030F00C0E9
:100D1000002C95B90795889400C0002CB5B800C088
:100D200000C014FF95B952FD030F0795889400C0C9
:100D3000002C95B953FD030F00C0002CB5B800C0BE
:100D400000C013FF95B90795889454FD030F00C0A8
:100D5000002C95B90795889400C0002CB5B800C048
:100D600000C012FF95B955FD030F0795889400C088
:100D7000002C95B956FD030F00C0002CB5B800C07B
:100D800000C011FF95B90795889457FD030F00C067
:100D9000002C95B90795889400C0002CB5B800C008
:100DA00000C010FF95B9132F5111102FE19400C00E
:100DB000002C95B9ED0E00C000C0B5B800C000C051
:100DC00017FF95B930810027889400C0002C95B991
:100DD0003111380F00C0002CB5B800C000C016FF9C
:100DE00095B908F43FEF8195889400C0002C95B91F
:100DF00090FC030F00C0002CB5B800C000C015FF68
:100E000095B90795889491FC030F00C0002C95B903
:100E10000795889400C0002CB5B800C000C014FF2E
:100E200095B992FC030F0795889400C0002C95B9E2
:100E300093FC030F00C0002CB5B800C000C013FF26
:100E400095B90795889494FC030F00C0002C95B9C0
:100E50000795889400C0002CB5B800C000C012FFF0
:100E600095B995FC030F0795889400C0002C95B99F
:100E700096FC030F00C0002CB5B800C000C011FFE5
:100E800095B90795889497FC030F00C0002C95B97D
:100E90000795889400C0002CB5B800C000C010FFB2
:100EA00095B9132F9110102F860F00C0002C95B903
:100EB000119709F086CEDF91CF911F910F91FF908E
:100EC000EF90DF90CF90BF90AF909F9008950F93D9
:100ED0001F93CF93DF93EC018B010E9432092F8582
:100EE0003889621B730B6A307105B8F3F894C80136
:100EF0000E948305D8011296ED91FC91139720EE84
:100F000031E0DF010E94DA0FAB01BC01A4E076956D
:100F1000679557954795AA95D1F780E090E09C0199
:100F2000AAE9EA9F0E0E211DFA9F200D311D112402
:100F30002F0F311D420F531F611D711D493EB3E03C
:100F40005B076105710508F434C0485E53406109D0
:100F5000710922E076956795579547952A95D1F7BF
:100F600027E0429F040E811D529F800D911D112488
:100F7000850F911D20911E0730E0420F531F480F2F
:100F8000591F8091200790912107A0912207B091CD
:100F90002307252F3327820F931FA11DB11D809397
:100FA000200790932107A0932207B0932307409333
:100FB0001E0778940E943209788B6F87DF91CF915A
:100FC0001F910F910895FC01118A108A0895EF92E4
:100FD000FF920F931F93CF93DF93EC019091160133
:100FE0009F5F292F27702093160190FF02C090E881
:100FF00001C090E021FD9064247009F0906220E12E
:10100000290FFE013C967E018FE0E80EF11C00E006
:1010100011E06191662331F070E0C8010E94850FF4
:101020006F5F01C060E0DF0114976C93322F369F31
:10103000030E30E0311D1124CF010797311103C099
:10104000EC01188203C03150EC013883662311F0A3
:1010500061506C93EE15FF05E1F6DF91CF911F9182
:101060000F91FF90EF900895EF92FF920F931F93CF
:10107000CF93DF93CDB7DEB762970FB6F894DEBF9C
:101080000FBECDBF8C017A01F901DC011C968C9159
:101090007A8369835C834B835E834D8390819D87D4
:1010A00091819E8792819F87813029F4CE0101969C
:1010B0000E94E70706C01C861B861A8619861886BA
:1010C0001F82188AB701CE0101960E94E307D8015A
:1010D000ED91FC910484F585E02DBE016F5F7F4F9B
:1010E000C801099562960FB6F894DEBF0FBECDBF5A
:1010F000DF91CF911F910F91FF90EF900895EF92A4
:10110000FF920F931F93CF93DF93CDB7DEB7629714
:101110000FB6F894DEBF0FBECDBF8C017A01F90186
:10112000DC011C968C917A8369835C834B835E839C
:101130004D8390819D8791819E8792819F87813089
:1011400029F4CE0101960E94E70706C01C861B8683
:101150001A86198618861F8283E0888BB701CE0114
:1011600001960E94E307D801ED91FC910484F58576
:10117000E02DBE016F5F7F4FC801099562960FB6E3
:10118000F894DEBF0FBECDBFDF91CF911F910F91BD
:10119000FF90EF9008950F931F9306E816E029E162
:1011A00030E042E050E065E070E080E391E00E94D2
:1011B0006F001F910F9108951F920F920FB60F921B
:1011C00011242F933F938F939F93AF93BF9380915D
:1011D000200790912107A0912207B0912307309119
:1011E0001F0723E0230F2D3720F40196A11DB11D09
:1011F00005C026E8230F0296A11DB11D20931F07ED
:101200008093200790932107A0932207B093230790
:101210008091240790912507A0912607B091270778
:101220000196A11DB11D8093240790932507A093DB
:101230002607B0932707BF91AF919F918F913F9160
:101240002F910F900FBE0F901F9018952FB7F89405
:1012500060912007709121078091220790912307C8
:101260002FBF08953FB7F8948091240790912507E8
:10127000A0912607B091270726B5A89B05C02F3F50
:1012800019F00196A11DB11D3FBFBA2FA92F982FAC
:101290008827820F911DA11DB11DBC01CD0142E027
:1012A000660F771F881F991F4A95D1F70895789484
:1012B00084B5826084BD84B5816084BD85B582605B
:1012C00085BD85B5816085BDEEE6F0E080818160F9
:1012D0008083E1E8F0E010828081826080838081F9
:1012E00081608083E0E8F0E0808181608083E1EBD1
:1012F000F0E0808184608083E0EBF0E080818160B9
:101300008083EAE7F0E0808184608083808182606E
:101310008083808181608083808180688083109257
:10132000C1000895FC0181E090E02081222311F0AA
:1013300080E090E0089521E0FC01208308950E9460
:1013400057090E94A104C0E0D0E00E947D052097CB
:10135000E1F30E940000F9CF009729F0BC0180E082
:1013600090E00C94C90C0895CF93DF9300D000D087
:10137000CDB7DEB7611571058105910579F09B0147
:10138000AC0169833A834B835C830E94C40C29813E
:101390003A814B815C810E94BB0F03C060E070E02A
:1013A000CB010F900F900F900F90DF91CF91089588
:1013B000CF92DF92EF92FF920F931F936217730702
:1013C0008407950784F489019A016B017C01C901A6
:1013D000B8016C197D098E099F090E94B4096C0D32
:1013E0007D1D8E1D9F1D1F910F91FF90EF90DF902F
:1013F000CF9008954F925F926F927F92AF92BF927B
:10140000CF92DF92EF92FF920F931F93CF93DF93D0
:10141000FC011082118212824423B9F18B01075F13
:101420001F4F5C01EB012C96442E512C612C712C2A
:10143000D8011397CC90D8012D918D01CC20F9F0D3
:101440002223E9F0822F90E0A0E0B0E09C01AD0102
:101450002F5F3F4F4F4F5F4FC301B2010E94750F87
:101460009B01AC01D12CE12CF12CC701B6016F5FBF
:101470007F4F8F4F9F4F0E94750FD5018C93BFEF09
:10148000AB1ABB0A0C171D0799F6CF01DF91CF915C
:101490001F910F91FF90EF90DF90CF90BF90AF9092
:1014A0007F906F905F904F900895CF92DF92EF9270
:1014B000FF920F931F93CF93DF938C016B01EA018F
:1014C0007901121613061CF07A01C0E0D0E0D801B1
:1014D000ED91FC910480F581E02DC8010995BE01D4
:1014E000660F771FC60FD71FB6016C0F7D1FF8015F
:1014F00073836283F686E5860190F081E02D028495
:10150000F385E02DC8010995009711F19C0140E099
:1015100050E060E472E48FE090E00E94BB0FC09066
:101520003907D0903A07E0903B07F0903C07C9019B
:10153000DA018C159D05AE05BF0510F4D701C60173
:101540008093390790933A07A0933B07B0933C07E9
:10155000C801DF91CF911F910F91FF90EF90DF9025
:10156000CF900895CF92DF92EF92FF920F931F9347
:10157000CF93DF9320912C0730912D07A9014F5F66
:101580005F4F50932D0740932C0726173707B4F170
:10159000EC010E9426098B019C01E0912C07F0913F
:1015A0002D0788EE93E0E89FB001E99F700DF89F4A
:1015B000700D1124072E000C880B990BC090280782
:1015C000D0902907E0902A07F0902B07A9019801F5
:1015D0002C193D094E095F090E94990F3A8329830E
:1015E00010922D0710922C070E942609609328075D
:1015F0007093290780932A0790932B07DF91CF914F
:101600001F910F91FF90EF90DF90CF900895AF92D0
:10161000BF92CF92DF92EF92FF920F931F93CF93DF
:10162000DF9300D01F92CDB7DEB77C01D62EF70135
:1016300083819481A581B681892B8A2B8B2BD1F054
:101640000E94320900912E0710912F072091300738
:1016500030913107DC01CB01801B910BA20BB30B46
:10166000F701038114812581368180179107A20734
:10167000B307E8F20E94320960932E0770932F0798
:101680008093300790933107D7011B96ED91FC9121
:101690001C97309751F0D70117964D915D916D9140
:1016A0007C911A978D2D0995D82E009134071091B1
:1016B00035070115110551F1F801C484D7011196C0
:1016C0008D919C9112978436910508F41486D80167
:1016D000ED91FC91A280B3804D2DB801CE01019611
:1016E0000E94FA09F80145855685628173819E0141
:1016F0002F5F3F4FC801F5010995D8011C96CC9288
:101700001C9714960D911C911597D3CF69E170E049
:10171000C7010E94B20A0F900F900F90DF91CF91F6
:101720001F910F91FF90EF90DF90CF90BF90AF90FF
:101730000895E6E3F7E08FEF80831282118214862A
:1017400013868FEF9FEFDC0187839087A187B28795
:1017500008950F931F938B019C01809170008E7FE1
:10176000809370008091B0008C7F8093B000809156
:10177000B100877F8093B1008091B6008F7D809308
:10178000B600809170008D7F809370008091B100D1
:1017900084608093B1008091B1008C7F8093B10010
:1017A00086E090E09093440780934307011511056C
:1017B0002105310569F481E090E0A0E0B0E080937C
:1017C0004C0790934D07A0934E07B0934F0708C066
:1017D00000934C0710934D0720934E0730934F070B
:1017E00050934B0740934A071F910F910895109211
:1017F0004607109247071092480710924907109227
:10180000450780914307909144078093B200E0E739
:10181000F0E08081816080830895809146079091F7
:101820004707A0914807B09149070196A11DB11D36
:101830008093460790934707A0934807B0934907C2
:1018400040914607509147076091480770914907BA
:1018500080914C0790914D07A0914E07B0914F0792
:10186000481759076A077B07B0F080914507811137
:1018700012C081E0809345071092460710924707F7
:101880001092480710924907E0914A07F0914B07E0
:1018900009951092450708951F920F920FB60F9267
:1018A00011242F933F934F935F936F937F938F9365
:1018B0009F93AF93BF93EF93FF93809143079091D2
:1018C00044078093B2000E940D0CFF91EF91BF91ED
:1018D000AF919F918F917F916F915F914F913F91C8
:1018E0002F910F900FBE0F901F9018958F929F927F
:1018F000AF92BF92CF92DF92EF92FF92CF93DF939E
:10190000EC01688179818A819B816115710581056E
:10191000910521F464E279ED8BE597E02DE133EF59
:1019200041E050E00E94BB0F49015A019B01AC010C
:10193000A7EAB1E40E94E10F6B017C01ACEEB4EFC9
:10194000A50194010E94EF0FDC01CB018C0D9D1DC0
:10195000AE1DBF1DB7FF03C00197A109B048888322
:101960009983AA83BB83BC01CD019F77DF91CF917F
:10197000FF90EF90DF90CF90BF90AF909F908F90AF
:1019800008950E94760C089580E091E00E94760C04
:101990000895609300017093010180930201909378
:1019A00003010895F8940C941D105058BB27AA27E2
:1019B0000E94ED0C0C943E0E0E94300E38F00E94F6
:1019C000370E20F039F49F3F19F426F40C942D0EB5
:1019D0000EF4E095E7FB0C94270EE92F0E944F0EC2
:1019E00058F3BA17620773078407950720F079F454
:1019F000A6F50C94710E0EF4E0950B2EBA2FA02DC7
:101A00000B01B90190010C01CA01A0011124FF27AB
:101A1000591B99F0593F50F4503E68F11A16F040A6
:101A2000A22F232F342F4427585FF3CF46953795A5
:101A30002795A795F0405395C9F77EF41F16BA0B6A
:101A4000620B730B840BBAF09150A1F0FF0FBB1F18
:101A5000661F771F881FC2F70EC0BA0F621F731F61
:101A6000841F48F4879577956795B795F7959E3FBE
:101A700008F0B0CF9395880F08F09927EE0F97954F
:101A8000879508950E94560D0C943E0E0E94370EC5
:101A900058F00E94300E40F029F45F3F29F00C947A
:101AA000270E51110C94720E0C942D0E0E944F0EA5
:101AB00068F39923B1F3552391F3951B550BBB277D
:101AC000AA2762177307840738F09F5F5F4F220FC2
:101AD000331F441FAA1FA9F335D00E2E3AF0E0E8B9
:101AE00032D091505040E695001CCAF72BD0FE2F03
:101AF00029D0660F771F881FBB1F26173707480797
:101B0000AB07B0E809F0BB0B802DBF01FF2793584E
:101B10005F4F3AF09E3F510578F00C94270E0C94DD
:101B2000720E5F3FE4F3983ED4F386957795679500
:101B3000B795F7959F5FC9F7880F911D9695879583
:101B400097F90895E1E0660F771F881FBB1F6217A2
:101B500073078407BA0720F0621B730B840BBA0B60
:101B6000EE1F88F7E09508950E94BB0D6894B111AF
:101B70000C94720E08950E94570E88F09F5798F0AB
:101B8000B92F9927B751B0F0E1F0660F771F881F82
:101B9000991F1AF0BA95C9F714C0B13091F00E949C
:101BA000710EB1E008950C94710E672F782F88277D
:101BB000B85F39F0B93FCCF3869577956795B395C3
:101BC000D9F73EF490958095709561957F4F8F4F32
:101BD0009F4F0895E89409C097FB3EF49095809537
:101BE000709561957F4F8F4F9F4F9923A9F0F92FE3
:101BF00096E9BB279395F695879577956795B79561
:101C0000F111F8CFFAF4BB0F11F460FF1BC06F5F46
:101C10007F4F8F4F9F4F16C0882311F096E911C058
:101C2000772321F09EE8872F762F05C0662371F079
:101C300096E8862F70E060E02AF09A95660F771F8D
:101C4000881FDAF7880F9695879597F9089597F981
:101C50009F6780E870E060E008959FEF80EC089552
:101C600000240A941616170618060906089500247B
:101C70000A9412161306140605060895092E0394F5
:101C8000000C11F4882352F0BB0F40F4BF2B11F469
:101C900060FF04C06F5F7F4F8F4F9F4F089557FDC8
:101CA0009058440F551F59F05F3F71F04795880FCA
:101CB00097FB991F61F09F3F79F087950895121661
:101CC00013061406551FF2CF4695F1DF08C016160D
:101CD00017061806991FF1CF8695710561050894BE
:101CE0000895E894BB2766277727CB0197F90895D5
:101CF0000E948B0E0C943E0E0E94300E38F00E9413
:101D0000370E20F0952311F00C94270E0C942D0E15
:101D100011240C94720E0E944F0E70F3959FC1F324
:101D2000950F50E0551F629FF001729FBB27F00D89
:101D3000B11D639FAA27F00DB11DAA1F649F6627DE
:101D4000B00DA11D661F829F2227B00DA11D621F2D
:101D5000739FB00DA11D621F839FA00D611D221FE7
:101D6000749F3327A00D611D231F849F600D211DCB
:101D7000822F762F6A2F11249F5750409AF0F1F04E
:101D800088234AF0EE0FFF1FBB1F661F771F881FB7
:101D900091505040A9F79E3F510580F00C94270EBA
:101DA0000C94720E5F3FE4F3983ED4F386957795DA
:101DB0006795B795F795E7959F5FC1F7FE2B880F5D
:101DC000911D9695879597F908959F930E94EF0E20
:101DD0000F9007FCEE5F0C94180F0C942D0E0E94D0
:101DE000570ED8F3E894E0E0BB279F57F0F02AEDB8
:101DF0003FE049EC06C0EE0FBB0F661F771F881F40
:101E000028F0B23A62077307840728F0B25A620BCF
:101E1000730B840BE3959A9572F7803830F49A959A
:101E2000BB0F661F771F881FD2F790480C942E0FA8
:101E3000EF93E0FF07C0A2EA2AED3FE049EC5FEB39
:101E40000E94ED0C0E943E0E0F90039401FC9058EE
:101E5000E8E6F0E00C943A0F9F3F31F0915020F407
:101E6000879577956795B795880F911D9695879576
:101E700097F908959F938F937F936F93FF93EF93B9
:101E80009B01AC010E94780EEF91FF910E944E0FD2
:101E90002F913F914F915F910C94780EDF93CF93E8
:101EA0001F930F93FF92EF92DF927B018C01689456
:101EB00006C0DA2EEF010E948B0EFE01E894A59178
:101EC0002591359145915591A6F3EF010E94ED0CB6
:101ED000FE019701A801DA9469F7DF90EF90FF9077
:101EE0000F911F91CF91DF910895DB018F939F9305
:101EF0000E94E10FBF91AF91A29F800D911DA39F02
:101F0000900DB29F900D1124089597FB072E16F4A3
:101F1000009407D077FD09D00E94F40F07FC05D08C
:101F20003EF4909581959F4F0895709561957F4FF0
:101F30000895A1E21A2EAA1BBB1BFD010DC0AA1F0A
:101F4000BB1FEE1FFF1FA217B307E407F50720F022
:101F5000A21BB30BE40BF50B661F771F881F991F9D
:101F60001A9469F760957095809590959B01AC01E6
:101F7000BD01CF010895052E97FB1EF400940E9429
:101F8000D20F57FD07D00E94990F07FC03D04EF4E3
:101F90000C94D20F50954095309521953F4F4F4F5F
:101FA0005F4F089590958095709561957F4F8F4F05
:101FB0009F4F08950E940E10B7FF0895821B930B48
:101FC00008950E940E10A59F900DB49F900DA49FA0
:101FD000800D911D11240895B7FF0C94E10F0E940C
:101FE000E10F821B930B0895AA1BBB1B51E107C095
:101FF000AA1FBB1FA617B70710F0A61BB70B881F99
:10200000991F5A95A9F780959095BC01CD01089527
:10201000EE0FFF1F0590F491E02D0994A29FB001EF
:10202000B39FC001A39F700D811D1124911DB29F0C
:0E203000700D811D1124911D0895F894FFCFAD
:10203E00010000000000000034087F085E03370333
:06204E0033035B0367078A
:00000001FF
