:100000000C9436000C945E000C945E000C945E0020
:100010000C945E000C945E000C945E000C945E00E8
:100020000C945E000C945E000C945E000C945E00D8
:100030000C945E000C945E000C945E000C945E00C8
:100040000C94A9040C945E000C945E000C945E0069
:100050000C945E000C945E000C945E000C945E00A8
:100060000C945E000C945E0098043E0711241FBEA1
:10007000CFEFD8E0DEBFCDBF11E0A0E0B1E0E6EE0B
:10008000FFE002C005900D92A231B107D9F721E03F
:10009000A2E1B1E001C01D92A53FB207E1F710E077
:1000A000C6E3D0E004C02197FE010E94DC07C43300
:1000B000D107C9F70E9492050C944E070C940000DA
:1000C0000F931F93FC0175836483538742873587A1
:1000D000248711861086138302831F910F91089540
:1000E000CF93DF93EB01A0E0B0E040E050E09A0155
:1000F0002A0F3B1FFC0162817381FB01E20FF31F9A
:1001000028812083298121832A8122834D5F5F4FAB
:100110004B34510561F7A55BBF4FA639B10529F7EF
:10012000DF91CF910895FC01858596850895CF9341
:10013000DF9300D000D000D0CDB7DEB7AB011C827A
:100140001D821E82DC01ED91FC910190F081E02D79
:1001500019821A821B829E012F5F3F4FBE016C5F86
:100160007F4F099526960FB6F894DEBF0FBECDBF20
:10017000DF91CF91089580E991E00895239A089541
:10018000FC0160810C94AC06CF93DF9300D01F92EA
:10019000CDB7DEB78091240181114DC084E291E09A
:1001A0000E948505892B09F446C010921601109211
:1001B00015018FEF8093190180931A0180931B0121
:1001C00080931C0180931D0180931E0181E0809328
:1001D0001F0110922101109220011092180110921B
:1001E00017018091E6019091E701892B31F483E1B9
:1001F00091E09093E7018093E601E091E401F091B2
:10020000E501309721F083E191E09583848383E1D8
:1002100091E09093E5018093E40110922301109204
:10022000220184E091E0909314018093130184E211
:1002300091E00E948E0520E030E042E350E06AE366
:1002400071E083E191E00E94FA058FEF898385EAEE
:100250008A831B82BE016F5F7F4F8CE291E00E9418
:1002600070000F900F900F90DF91CF91089580E074
:1002700090E0FC01E65CFE4F108211821282039630
:1002800086399105B1F7089588EE91E00E94C0008B
:1002900068E873E180E090E00E9424050C94370147
:1002A0009F92AF92BF92CF92DF92EF92FF920F9305
:1002B0001F93CF93DF93FC01C080D18025B12860CC
:1002C000B22E95B1977F95B961858681062F081B5F
:1002D000802F06837785A281B38134854585568535
:1002E00099249394930E4F5F5F5FF780E084C285FB
:1002F000D385F6011081A12C0A2D2A2D3A2D3081AB
:10030000112788943111380F08F43FEF81958894B4
:1003100090FC130F1795889491FC130F17958894F0
:1003200092FC130F1795889493FC130F17958894DC
:1003300094FC130F1795889495FC130F17958894C8
:1003400096FC130F1795889497FC130F17958894B4
:10035000032F9110012F860F102F002CB5B800C06D
:1003600000C017FF95B931810027889400C0002C88
:1003700095B931113F0D00C0002CB5B800C000C0C8
:1003800016FF95B908F43FEFF194889400C0002C53
:1003900095B940FD030F00C0002CB5B800C000C0E7
:1003A00015FF95B90795889441FD030F00C0002CF7
:1003B00095B90795889400C0002CB5B800C000C05E
:1003C00014FF95B942FD030F0795889400C0002CD7
:1003D00095B943FD030F00C0002CB5B800C000C0A4
:1003E00013FF95B90795889444FD030F00C0002CB6
:1003F00095B90795889400C0002CB5B800C000C01E
:1004000012FF95B945FD030F0795889400C0002C95
:1004100095B946FD030F00C0002CB5B800C000C060
:1004200011FF95B90795889447FD030F00C0002C74
:1004300095B90795889400C0002CB5B800C000C0DD
:1004400010FF95B9132F4111102FFC0E00C0002C86
:1004500095B900C000C0002CB5B800C000C017FF9F
:1004600095B932810027889400C0002C95B93111CC
:100470003E0D00C0002CB5B800C000C016FF95B9F5
:1004800008F43FEFE70FF11D00C0002C95B950FDB7
:10049000030F00C0002CB5B800C000C015FF95B90F
:1004A0000795889451FD030F00C0002C95B907955E
:1004B000889400C0002CB5B800C000C014FF95B9E6
:1004C00052FD030F0795889400C0002C95B953FD89
:1004D000030F00C0002CB5B800C000C013FF95B9D1
:1004E0000795889454FD030F00C0002C95B907951B
:1004F000889400C0002CB5B800C000C012FF95B9A8
:1005000055FD030F0795889400C0002C95B956FD42
:10051000030F00C0002CB5B800C000C011FF95B992
:100520000795889457FD030F00C0002C95B90795D7
:10053000889400C0002CB5B800C000C010FF95B969
:10054000132F5111102FE19400C0002C95B9ED0E1E
:1005500000C000C0B5B800C000C017FF95B9308119
:100560000027889400C0002C95B93111380F00C0C5
:10057000002CB5B800C000C016FF95B908F43FEFD5
:100580008195889400C0002C95B990FC030F00C0A1
:10059000002CB5B800C000C015FF95B90795889428
:1005A00091FC030F00C0002C95B90795889400C0FA
:1005B000002CB5B800C000C014FF95B992FC030F21
:1005C0000795889400C0002C95B993FC030F00C0D8
:1005D000002CB5B800C000C013FF95B907958894EA
:1005E00094FC030F00C0002C95B90795889400C0B7
:1005F000002CB5B800C000C012FF95B995FC030FE0
:100600000795889400C0002C95B996FC030F00C094
:10061000002CB5B800C000C011FF95B907958894AB
:1006200097FC030F00C0002C95B90795889400C073
:10063000002CB5B800C000C010FF95B9132F911061
:10064000102F860F00C0002C95B9119709F086CEA7
:10065000DF91CF911F910F91FF90EF90DF90CF909E
:10066000BF90AF909F9008950F931F93CF93DF9308
:10067000EC018B010E94FF042F853889621B730BEC
:100680006A307105B8F3F894C8010E945001D8018E
:100690001296ED91FC91139720EE31E0DF010E945C
:1006A000B607AB01BC01A4E07695679557954795D1
:1006B000AA95D1F780E090E09C01AAE9EA9F0E0E8E
:1006C000211DFA9F200D311D11242F0F311D420FC6
:1006D000531F611D711D493EB3E05B076105710544
:1006E00008F434C0485E53406109710922E07695F0
:1006F0006795579547952A95D1F727E0429F040EB5
:10070000811D529F800D911D1124850F911D2091F7
:10071000D00130E0420F531F480F591F8091D20182
:100720009091D301A091D401B091D501252F332709
:10073000820F931FA11DB11D8093D2019093D3010D
:10074000A093D401B093D5014093D00178940E9436
:10075000FF04788B6F87DF91CF911F910F910895E0
:10076000FC01118A108A0895EF92FF920F931F9354
:10077000CF93DF93EC01909112019F5F292F277097
:100780002093120190FF02C090E801C090E021FD8B
:100790009064247009F0906220E1290FFE013C96DC
:1007A0007E018FE0E80EF11C00E011E0619166230C
:1007B00031F070E0C8010E9461076F5F01C060E026
:1007C000DF0114976C93322F369F030E30E0311DFA
:1007D0001124CF010797311103C0EC01188203C027
:1007E0003150EC013883662311F061506C93EE15A3
:1007F000FF05E1F6DF91CF911F910F91FF90EF90F0
:100800000895EF92FF920F931F93CF93DF93CDB78D
:10081000DEB762970FB6F894DEBF0FBECDBF8C0176
:100820007A01F901DC011C968C917A8369835C83DF
:100830004B835E834D8390819D8791819E879281BA
:100840009F87813029F4CE0101960E94B40306C02F
:100850001C861B861A86198618861F82188AB7017D
:10086000CE0101960E94B003D801ED91FC91048461
:10087000F585E02DBE016F5F7F4FC8010995629637
:100880000FB6F894DEBF0FBECDBFDF91CF911F91A1
:100890000F91FF90EF900895EF92FF920F931F93A7
:1008A000CF93DF93CDB7DEB762970FB6F894DEBF74
:1008B0000FBECDBF8C017A01F901DC011C968C9131
:1008C0007A8369835C834B835E834D8390819D87AC
:1008D00091819E8792819F87813029F4CE01019674
:1008E0000E94B40306C01C861B861A8619861886C9
:1008F0001F8283E0888BB701CE0101960E94B0036E
:10090000D801ED91FC910484F585E02DBE016F5F67
:100910007F4FC801099562960FB6F894DEBF0FBEEF
:10092000CDBFDF91CF911F910F91FF90EF90089570
:100930000F931F930AE311E02DE030E041E050E017
:1009400065E070E08CE291E00E9460001F910F91E1
:1009500008951F920F920FB60F9211242F933F9379
:100960008F939F93AF93BF938091D2019091D301C6
:10097000A091D401B091D5013091D10123E0230F92
:100980002D3720F40196A11DB11D05C026E8230FC7
:100990000296A11DB11D2093D1018093D2019093A5
:1009A000D301A093D401B093D5018091D601909149
:1009B000D701A091D801B091D9010196A11DB11D17
:1009C0008093D6019093D701A093D801B093D90119
:1009D000BF91AF919F918F913F912F910F900FBE3B
:1009E0000F901F9018952FB7F8946091D2017091D5
:1009F000D3018091D4019091D5012FBF08953FB7C5
:100A0000F8948091D6019091D701A091D801B0912E
:100A1000D90126B5A89B05C02F3F19F00196A11D4D
:100A2000B11D3FBFBA2FA92F982F8827820F911D84
:100A3000A11DB11DBC01CD0142E0660F771F881FCB
:100A4000991F4A95D1F70895CF92DF92EF92FF92C6
:100A5000CF93DF936B017C010E94FF04EB01C11473
:100A6000D104E104F10479F00E94FF046C1B7D0BBA
:100A7000683E7340A0F381E0C81AD108E108F1088C
:100A8000C851DC4FECCFDF91CF91FF90EF90DF901A
:100A9000CF900895789484B5826084BD84B58160D8
:100AA00084BD85B5826085BD85B5816085BDEEE676
:100AB000F0E0808181608083E1E8F0E01082808155
:100AC00082608083808181608083E0E8F0E08081C3
:100AD00081608083E1EBF0E0808184608083E0EBE3
:100AE000F0E0808181608083EAE7F0E080818460CB
:100AF0008083808182608083808181608083808127
:100B0000806880831092C1000895FC0181E090E02C
:100B10002081222311F080E090E0089521E0FC0183
:100B2000208308950E944A050E94C400C0E0D0E0DE
:100B30000E9444012097E1F30E940000F9CF4F92F8
:100B40005F926F927F92AF92BF92CF92DF92EF92BD
:100B5000FF920F931F93CF93DF93FC0110821182BA
:100B600012824423B9F18B01075F1F4F5C01EB0137
:100B70002C96442E512C612C712CD8011397CC90BB
:100B8000D8012D918D01CC20F9F02223E9F0822F9C
:100B900090E0A0E0B0E09C01AD012F5F3F4F4F4FD0
:100BA0005F4FC301B2010E9451079B01AC01D12CE0
:100BB000E12CF12CC701B6016F5F7F4F8F4F9F4F24
:100BC0000E945107D5018C93BFEFAB1ABB0A0C17DB
:100BD0001D0799F6CF01DF91CF911F910F91FF90E3
:100BE000EF90DF90CF90BF90AF907F906F905F902D
:100BF0004F900895CF92DF92EF92FF920F931F9341
:100C0000CF93DF938C016B01EA0179011216130671
:100C10001CF07A01C0E0D0E0D801ED91FC91048095
:100C2000F581E02DC8010995BE01660F771FC60F3B
:100C3000D71FB6016C0F7D1FF80173836283F686A0
:100C4000E5860190F081E02D0284F385E02DC80156
:100C50000995009711F19C0140E050E060E472E4D6
:100C60008FE090E00E949707C090EB01D090EC01DC
:100C7000E090ED01F090EE01C901DA018C159D05BF
:100C8000AE05BF0510F4D701C6018093EB01909328
:100C9000EC01A093ED01B093EE01C801DF91CF917B
:100CA0001F910F91FF90EF90DF90CF900895CF921A
:100CB000DF92EF92FF920F931F93CF93DF932091D8
:100CC000DE013091DF01A9014F5F5F4F5093DF01DB
:100CD0004093DE0126173707B4F1EC010E94F304BC
:100CE0008B019C01E091DE01F091DF0188EE93E041
:100CF000E89FB001E99F700DF89F700D1124072E39
:100D0000000C880B990BC090DA01D090DB01E090C9
:100D1000DC01F090DD01A90198012C193D094E0973
:100D20005F090E9475073A8329831092DF011092B0
:100D3000DE010E94F3046093DA017093DB0180937B
:100D4000DC019093DD01DF91CF911F910F91FF9016
:100D5000EF90DF90CF900895AF92BF92CF92DF9245
:100D6000EF92FF920F931F93CF93DF9300D01F92C8
:100D7000CDB7DEB77C01D62EF70183819481A581A2
:100D8000B681892B8A2B8B2BD1F00E94FF04009116
:100D9000E0011091E1012091E2013091E301DC01D9
:100DA000CB01801B910BA20BB30BF70103811481C4
:100DB0002581368180179107A207B307E8F20E94C8
:100DC000FF046093E0017093E1018093E20190934E
:100DD000E301D7011B96ED91FC911C97309751F0E0
:100DE000D70117964D915D916D917C911A978D2D3C
:100DF0000995D82E0091E6011091E7010115110522
:100E000051F1F801C484D70111968D919C911297EC
:100E10008436910508F41486D801ED91FC91A280E6
:100E2000B3804D2DB801CE0101960E949F05F801B7
:100E300045855685628173819E012F5F3F4FC801B2
:100E4000F5010995D8011C96CC921C9714960D912A
:100E50001C911597D3CF69E170E0C7010E94570636
:100E60000F900F900F90DF91CF911F910F91FF90F6
:100E7000EF90DF90CF90BF90AF900895E8EEF1E053
:100E80008FEF808312821182148613868FEF9FEF7B
:100E9000DC0187839087A187B2870895F8940C942A
:100EA000F107DB018F939F930E94BD07BF91AF9124
:100EB000A29F800D911DA39F900DB29F900D1124B4
:100EC000089597FB072E16F4009407D077FD09D0FC
:100ED0000E94C80707FC05D03EF4909581959F4F6E
:100EE0000895709561957F4F0895A1E21A2EAA1B6F
:100EF000BB1BFD010DC0AA1FBB1FEE1FFF1FA217CA
:100F0000B307E407F50720F0A21BB30BE40BF50BC6
:100F1000661F771F881F991F1A9469F7609570954F
:100F2000809590959B01AC01BD01CF010895052EE0
:100F300097FB1EF400940E94AE0757FD07D00E9455
:100F4000750707FC03D04EF40C94AE0750954095FE
:100F5000309521953F4F4F4F5F4F08959095809565
:100F6000709561957F4F8F4F9F4F08950E94E207C4
:100F7000B7FF0895821B930B08950E94E207A59F77
:100F8000900DB49F900DA49F800D911D1124089584
:100F9000AA1BBB1B51E107C0AA1FBB1FA617B7079F
:100FA00010F0A61BB70B881F991F5A95A9F78095BB
:100FB0009095BC01CD010895EE0FFF1F0590F491AF
:100FC000E02D0994A29FB001B39FC001A39F700DB3
:100FD000811D1124911DB29F700D811D1124911D41
:060FE0000895F894FFCF14
:100FE6000000000001044C04BE0097009300BB0003
:020FF6003403C2
:00000001FF
