:100000000C9445000C946D000C946D000C946D00E4
:100010000C946D000C946D000C946D000C946D00AC
:100020000C946D000C9407090C946D000C946D00F9
:100030000C946D000C946D000C946D000C946D008C
:100040000C94E5050C946D000C946D000C946D00FF
:100050000C946D000C946D000C946D000C946D006C
:100060000C946D000C946D0005A84CCDB2D44EB923
:100070003836A9020C50B9918688083CA6AAAA2A4B
:10008000BE000000803FD405540811241FBECFEFEE
:10009000D8E0DEBFCDBF11E0A0E0B1E0EEEDF8E1C9
:1000A00002C005900D92A231B107D9F722E0A2E17A
:1000B000B1E001C01D92A430B207E1F710E0C5E441
:1000C000D0E004C02197FE010E94580CC334D10730
:1000D000C9F70E94A8060C9431090C9400000F93F4
:1000E0001F93FC0175836483538742873587248778
:1000F00011861086138302831F910F910895CF9369
:10010000DF93EB01A0E0B0E040E050E09A012A0F5D
:100110003B1FFC0162817381FB01E20FF31F288109
:100120002083298121832A8122834D5F5F4F4B34B5
:10013000510561F7A55BBF4FA639B10529F7DF91DE
:10014000CF910895FC01778366835183408308959E
:10015000CF93DF93D90129E1249FF001259FF00D72
:1001600011246E0F7F1FFB01EE0FFF1F6E0F7F1F0D
:10017000EC01EA81FB81E60FF71F8C9180831196D9
:100180008C911197818312968C918283DF91CF910C
:100190000895CF92DF92EF92FF920F931F93CF9328
:1001A000DF9300D01F92CDB7DEB78C01DC0118962B
:1001B0002D913C91199714968D919C911597820FD2
:1001C000931F16966D917C9117970E94DD0BF80195
:1001D00091878087C12CD12CE12CF12CD801189665
:1001E0002D913C911997ED91FC91A601B701CE019B
:1001F000019609959E012F5F3F4FA601B701C801E7
:100200000E94A800BFEFEB1AFB0AE9E1EE16F10429
:1002100029F7CA94CD2821F0CC24C394D12CDCCF6B
:100220000F900F900F90DF91CF911F910F91FF9042
:10023000EF90DF90CF900895FC0185859685089515
:10024000CF93DF9300D000D000D0CDB7DEB7AB01A5
:100250001C821D821E82DC01ED91FC910190F081D7
:10026000E02D19821A821B829E012F5F3F4FBE0133
:100270006C5F7F4F099526960FB6F894DEBF0FBED0
:10028000CDBFDF91CF91089580E991E00895239A41
:1002900008958CE291E00E94C9008091D001909174
:1002A000D10101969093D1018093D00108954F928E
:1002B0005F926F927F928F929F92AF92BF92CF92F6
:1002C000DF92EF92FF92CF93DF93EC018AE0869F5B
:1002D000A001879F500D1124B901640F751F072ECF
:1002E000000C880B990B0E94440A9B01AC010E94F0
:1002F000350920E030E04AEF54E40E94A10923ECE4
:1003000035EF48E450E40E94D00A0E943D0B20E003
:1003100030E040E85FE30E94350920E030E040E053
:100320005FE30E94D00A4B015C0120E030E0A901AC
:100330000E94D00A2B013C01A501940160E070E00D
:1003400080E89FE30E9434096B017C0120E030E0EB
:100350004FE753E40E94D00A9B01AC01C301B201F4
:100360000E94350920E030E040E85EE30E94D00AB8
:100370000E94130A688320E030E045E253E4C7019D
:10038000B6010E94D00A9B01AC01C301B2010E94D8
:10039000350920E030E040E85EE30E94D00A0E9488
:1003A000130A698320E030E04FE753E4C501B4014C
:1003B0000E94D00A4B015C0120E030E0A901C70196
:1003C000B6010E94D00A9B01AC01C501B4010E9494
:1003D000350920E030E040E85EE30E94D00A0E9448
:1003E000130A6A83CE01DF91CF91FF90EF90DF90E7
:1003F000CF90BF90AF909F908F907F906F905F90C5
:100400004F900895CF93DF9300D01F92CDB7DEB702
:100410008091240181114DC084E291E00E949B06ED
:10042000892B09F446C010921601109215018FEF26
:100430008093190180931A0180931B0180931C0102
:1004400080931D0180931E0181E080931F01109213
:100450002101109220011092180110921701809131
:10046000E8019091E901892B31F483E191E09093C7
:10047000E9018093E801E091E601F091E70130970E
:1004800021F083E191E09583848383E191E090936F
:10049000E7018093E601109223011092220184E08B
:1004A00091E0909314018093130184E291E00E9403
:1004B000A40620E030E042E350E06AE371E083E12B
:1004C00091E00E94100749E451E065E070E080E0AF
:1004D00090E00E9464080E94B20819821A828FEF8D
:1004E0008B83BE016F5F7F4F8CE291E00E947F00A3
:1004F00047E551E060ED77E08CE291E00E94A200D8
:100500000F900F900F90DF91CF9108956091EA01C5
:100510008AEE91E00C94C2079F92AF92BF92CF9265
:10052000DF92EF92FF920F931F93CF93DF93FC0123
:10053000C080D18025B12860B22E95B1977F95B942
:1005400061858681062F081B802F06837785A2810F
:10055000B38134854585568599249394930E4F5FD6
:100560005F5FF780E084C285D385F6011081A12CFE
:100570000A2D2A2D3A2D3081112788943111380FF8
:1005800008F43FEF8195889490FC130F1795889499
:1005900091FC130F1795889492FC130F179588946C
:1005A00093FC130F1795889494FC130F1795889458
:1005B00095FC130F1795889496FC130F1795889444
:1005C00097FC130F17958894032F9110012F860F16
:1005D000102F002CB5B800C000C017FF95B93181AD
:1005E0000027889400C0002C95B931113F0D00C040
:1005F000002CB5B800C000C016FF95B908F43FEF55
:10060000F194889400C0002C95B940FD030F00C000
:10061000002CB5B800C000C015FF95B907958894A7
:1006200041FD030F00C0002C95B90795889400C0C8
:10063000002CB5B800C000C014FF95B942FD030FEF
:100640000795889400C0002C95B943FD030F00C0A6
:10065000002CB5B800C000C013FF95B90795889469
:1006600044FD030F00C0002C95B90795889400C085
:10067000002CB5B800C000C012FF95B945FD030FAE
:100680000795889400C0002C95B946FD030F00C063
:10069000002CB5B800C000C011FF95B9079588942B
:1006A00047FD030F00C0002C95B90795889400C042
:1006B000002CB5B800C000C010FF95B9132F411130
:1006C000102FFC0E00C0002C95B900C000C0002CFB
:1006D000B5B800C000C017FF95B9328100278894D3
:1006E00000C0002C95B931113E0D00C0002CB5B8EA
:1006F00000C000C016FF95B908F43FEFE70FF11DE9
:1007000000C0002C95B950FD030F00C0002CB5B8F7
:1007100000C000C015FF95B90795889451FD030FDF
:1007200000C0002C95B90795889400C0002CB5B87E
:1007300000C000C014FF95B952FD030F07958894BF
:1007400000C0002C95B953FD030F00C0002CB5B8B4
:1007500000C000C013FF95B90795889454FD030F9E
:1007600000C0002C95B90795889400C0002CB5B83E
:1007700000C000C012FF95B955FD030F079588947E
:1007800000C0002C95B956FD030F00C0002CB5B871
:1007900000C000C011FF95B90795889457FD030F5D
:1007A00000C0002C95B90795889400C0002CB5B8FE
:1007B00000C000C010FF95B9132F5111102FE19404
:1007C00000C0002C95B9ED0E00C000C0B5B800C047
:1007D00000C017FF95B930810027889400C0002C15
:1007E00095B93111380F00C0002CB5B800C000C059
:1007F00016FF95B908F43FEF8195889400C0002C4E
:1008000095B990FC030F00C0002CB5B800C000C023
:1008100015FF95B90795889491FC030F00C0002C33
:1008200095B90795889400C0002CB5B800C000C0E9
:1008300014FF95B992FC030F0795889400C0002C13
:1008400095B993FC030F00C0002CB5B800C000C0E0
:1008500013FF95B90795889494FC030F00C0002CF2
:1008600095B90795889400C0002CB5B800C000C0A9
:1008700012FF95B995FC030F0795889400C0002CD2
:1008800095B996FC030F00C0002CB5B800C000C09D
:1008900011FF95B90795889497FC030F00C0002CB1
:1008A00095B90795889400C0002CB5B800C000C069
:1008B00010FF95B9132F9110102F860F00C0002C38
:1008C00095B9119709F086CEDF91CF911F910F91C5
:1008D000FF90EF90DF90CF90BF90AF909F900895E2
:1008E0000F931F93CF93DF93EC018B010E943B0684
:1008F0002F853889621B730B6A307105B8F3F89441
:10090000C8010E948C02D8011296ED91FC911397B8
:1009100020EE31E0DF010E94320CAB01BC01A4E00B
:100920007695679557954795AA95D1F780E090E021
:100930009C01AAE9EA9F0E0E211DFA9F200D311D90
:1009400011242F0F311D420F531F611D711D493E90
:10095000B3E05B076105710508F434C0485E53409D
:100960006109710922E076956795579547952A9513
:10097000D1F727E0429F040E811D529F800D911DEB
:100980001124850F911D2091D20130E0420F531F99
:10099000480F591F8091D4019091D501A091D601A3
:1009A000B091D701252F3327820F931FA11DB11DB1
:1009B0008093D4019093D501A093D601B093D70131
:1009C0004093D20178940E943B06788B6F87DF9129
:1009D000CF911F910F910895FC01118A108A0895FB
:1009E000EF92FF920F931F93CF93DF93EC019091BF
:1009F00012019F5F292F27702093120190FF02C0E0
:100A000090E801C090E021FD9064247009F09062AC
:100A100020E1290FFE013C967E018FE0E80EF11CDB
:100A200000E011E06191662331F070E0C8010E949E
:100A3000DD0B6F5F01C060E0DF0114976C93322F14
:100A4000369F030E30E0311D1124CF01079731117D
:100A500003C0EC01188203C03150EC0138836623D7
:100A600011F061506C93EE15FF05E1F6DF91CF9127
:100A70001F910F91FF90EF900895EF92FF920F93C7
:100A80001F93CF93DF93CDB7DEB762970FB6F8947D
:100A9000DEBF0FBECDBF8C017A01F901DC011C96CF
:100AA0008C917A8369835C834B835E834D839081D1
:100AB0009D8791819E8792819F87813029F4CE0105
:100AC00001960E94F00406C01C861B861A861986B1
:100AD00018861F82188AB701CE0101960E94EC0485
:100AE000D801ED91FC910484F585E02DBE016F5F86
:100AF0007F4FC801099562960FB6F894DEBF0FBE0E
:100B0000CDBFDF91CF911F910F91FF90EF9008958E
:100B1000EF92FF920F931F93CF93DF93CDB7DEB782
:100B200062970FB6F894DEBF0FBECDBF8C017A017D
:100B3000F901DC011C968C917A8369835C834B8379
:100B40005E834D8390819D8791819E8792819F874F
:100B5000813029F4CE0101960E94F00406C01C8663
:100B60001B861A86198618861F8283E0888BB70138
:100B7000CE0101960E94EC04D801ED91FC91048411
:100B8000F585E02DBE016F5F7F4FC8010995629624
:100B90000FB6F894DEBF0FBECDBFDF91CF911F918E
:100BA0000F91FF90EF9008950F931F930AE311E0C8
:100BB00029E130E042E050E065E070E08CE291E055
:100BC0000E946F001F910F9108951F920F920FB610
:100BD0000F9211242F933F938F939F93AF93BF93C3
:100BE0008091D4019091D501A091D601B091D70107
:100BF0003091D30123E0230F2D3720F40196A11D5E
:100C0000B11D05C026E8230F0296A11DB11D20933A
:100C1000D3018093D4019093D501A093D601B093D2
:100C2000D7018091D8019091D901A091DA01B091BA
:100C3000DB010196A11DB11D8093D8019093D901CC
:100C4000A093DA01B093DB01BF91AF919F918F9197
:100C50003F912F910F900FBE0F901F9018952FB7B7
:100C6000F8946091D4017091D5018091D601909152
:100C7000D7012FBF08953FB7F8948091D801909184
:100C8000D901A091DA01B091DB0126B5A89B05C07E
:100C90002F3F19F00196A11DB11D3FBFBA2FA92FFB
:100CA000982F8827820F911DA11DB11DBC01CD0178
:100CB00042E0660F771F881F991F4A95D1F7089564
:100CC000789484B5826084BD84B5816084BD85B527
:100CD000826085BD85B5816085BDEEE6F0E08081EE
:100CE00081608083E1E8F0E010828081826080830F
:100CF000808181608083E0E8F0E080818160808392
:100D0000E1EBF0E0808184608083E0EBF0E08081C3
:100D100081608083EAE7F0E0808184608083808165
:100D2000826080838081816080838081806880830D
:100D30001092C1000895FC0181E090E020812223FF
:100D400011F080E090E0089521E0FC0120830895F7
:100D50000E9460060E940202C0E0D0E00E9486026B
:100D60002097E1F30E940000F9CF4F925F926F92BB
:100D70007F92AF92BF92CF92DF92EF92FF920F934A
:100D80001F93CF93DF93FC011082118212824423C0
:100D9000B9F18B01075F1F4F5C01EB012C96442ECC
:100DA000512C612C712CD8011397CC90D8012D9126
:100DB0008D01CC20F9F02223E9F0822F90E0A0E011
:100DC000B0E09C01AD012F5F3F4F4F4F5F4FC3011C
:100DD000B2010E94CD0B9B01AC01D12CE12CF12C76
:100DE000C701B6016F5F7F4F8F4F9F4F0E94CD0BA2
:100DF000D5018C93BFEFAB1ABB0A0C171D0799F6F0
:100E0000CF01DF91CF911F910F91FF90EF90DF9075
:100E1000CF90BF90AF907F906F905F904F9008956C
:100E2000CF92DF92EF92FF920F931F93CF93DF93B6
:100E30008C016B01EA017901121613061CF07A018C
:100E4000C0E0D0E0D801ED91FC910480F581E02D67
:100E5000C8010995BE01660F771FC60FD71FB601DF
:100E60006C0F7D1FF80173836283F686E58601901F
:100E7000F081E02D0284F385E02DC80109950097EB
:100E800011F19C0140E050E060E472E48FE090E0FA
:100E90000E94130CC090ED01D090EE01E090EF01A4
:100EA000F090F001C901DA018C159D05AE05BF0572
:100EB00010F4D701C6018093ED019093EE01A09349
:100EC000EF01B093F001C801DF91CF911F910F9115
:100ED000FF90EF90DF90CF900895CF92DF92EF9246
:100EE000FF920F931F93CF93DF932091E0013091F6
:100EF000E101A9014F5F5F4F5093E1014093E00191
:100F000026173707B4F1EC010E942F068B019C01D4
:100F1000E091E001F091E10188EE93E0E89FB001FB
:100F2000E99F700DF89F700D1124072E000C880B9F
:100F3000990BC090DC01D090DD01E090DE01F090D3
:100F4000DF01A90198012C193D094E095F090E9492
:100F5000F10B3A8329831092E1011092E0010E9483
:100F60002F066093DC017093DD018093DE01909386
:100F7000DF01DF91CF911F910F91FF90EF90DF90F4
:100F8000CF900895AF92BF92CF92DF92EF92FF92EF
:100F90000F931F93CF93DF9300D01F92CDB7DEB78F
:100FA0007C01D62EF70183819481A581B681892B9E
:100FB0008A2B8B2BD1F00E943B060091E20110910D
:100FC000E3012091E4013091E501DC01CB01801BBC
:100FD000910BA20BB30BF70103811481258136819C
:100FE00080179107A207B307E8F20E943B066093BF
:100FF000E2017093E3018093E4019093E501D7014E
:101000001B96ED91FC911C97309751F0D7011796E4
:101010004D915D916D917C911A978D2D0995D82EEA
:101020000091E8011091E9010115110551F1F80154
:10103000C484D70111968D919C91129784369105A5
:1010400008F41486D801ED91FC91A280B3804D2D57
:10105000B801CE0101960E94B506F8014585568576
:10106000628173819E012F5F3F4FC801F501099591
:10107000D8011C96CC921C9714960D911C91159733
:10108000D3CF69E170E0C7010E946D070F900F9008
:101090000F90DF91CF911F910F91FF90EF90DF9014
:1010A000CF90BF90AF900895EAEEF1E08FEF80838C
:1010B00012821182148613868FEF9FEFDC018783E3
:1010C0009087A187B28708950F931F938B019C018E
:1010D000809170008E7F809370008091B0008C7F33
:1010E0008093B0008091B100877F8093B1008091A0
:1010F000B6008F7D8093B600809170008D7F8093C5
:1011000070008091B10084608093B1008091B10043
:101110008C7F8093B10086E090E09093F8018093FB
:10112000F701011511052105310569F481E090E011
:10113000A0E0B0E08093000290930102A09302022D
:10114000B093030208C000930002109301022093A1
:101150000202309303025093FF014093FE011F915E
:101160000F9108951092FA011092FB011092FC0168
:101170001092FD011092F9018091F7019091F80110
:101180008093B200E0E7F0E0808181608083089581
:101190008091FA019091FB01A091FC01B091FD01B9
:1011A0000196A11DB11D8093FA019093FB01A093BC
:1011B000FC01B093FD014091FA015091FB01609157
:1011C000FC017091FD018091000290910102A091BB
:1011D0000202B0910302481759076A077B07B0F073
:1011E0008091F901811112C081E08093F901109280
:1011F000FA011092FB011092FC011092FD01E091A6
:10120000FE01F091FF0109951092F90108951F92D6
:101210000F920FB60F9211242F933F934F935F932A
:101220006F937F938F939F93AF93BF93EF93FF93AE
:101230008091F7019091F8018093B2000E94C80854
:10124000FF91EF91BF91AF919F918F917F916F919E
:101250005F914F913F912F910F900FBE0F901F9074
:101260001895F8940C946D0C5058BB27AA270E942F
:101270004C090C94960A0E94880A38F00E948F0A42
:1012800020F039F49F3F19F426F40C94850A0EF4EB
:10129000E095E7FB0C947F0AE92F0E94A70A58F318
:1012A000BA17620773078407950720F079F4A6F54B
:1012B0000C94C90A0EF4E0950B2EBA2FA02D0B0149
:1012C000B90190010C01CA01A0011124FF27591B8B
:1012D00099F0593F50F4503E68F11A16F040A22F91
:1012E000232F342F4427585FF3CF46953795279502
:1012F000A795F0405395C9F77EF41F16BA0B620B01
:10130000730B840BBAF09150A1F0FF0FBB1F661F47
:10131000771F881FC2F70EC0BA0F621F731F841F8A
:1013200048F4879577956795B795F7959E3F08F0B0
:10133000B0CF9395880F08F09927EE0F9795879572
:1013400008950E94B5090C94960A0E948F0A58F0DD
:101350000E94880A40F029F45F3F29F00C947F0A2C
:1013600051110C94CA0A0C94850A0E94A70A68F3CA
:101370009923B1F3552391F3951B550BBB27AA274E
:1013800062177307840738F09F5F5F4F220F331F88
:10139000441FAA1FA9F335D00E2E3AF0E0E832D050
:1013A00091505040E695001CCAF72BD0FE2F29D053
:1013B000660F771F881FBB1F261737074807AB0725
:1013C000B0E809F0BB0B802DBF01FF2793585F4F9A
:1013D0003AF09E3F510578F00C947F0A0C94CA0AAB
:1013E0005F3FE4F3983ED4F3869577956795B7957C
:1013F000F7959F5FC9F7880F911D9695879597F987
:101400000895E1E0660F771F881FBB1F62177307FF
:101410008407BA0720F0621B730B840BBA0BEE1F14
:1014200088F7E09508950E94AF0A88F09F5798F0DA
:10143000B92F9927B751B0F0E1F0660F771F881FD9
:10144000991F1AF0BA95C9F714C0B13091F00E94F3
:10145000C90AB1E008950C94C90A672F782F88272C
:10146000B85F39F0B93FCCF3869577956795B3951A
:10147000D9F73EF490958095709561957F4F8F4F89
:101480009F4F0895E89409C097FB3EF4909580958E
:10149000709561957F4F8F4F9F4F9923A9F0F92F3A
:1014A00096E9BB279395F695879577956795B795B8
:1014B000F111F8CFFAF4BB0F11F460FF1BC06F5F9E
:1014C0007F4F8F4F9F4F16C0882311F096E911C0B0
:1014D000772321F09EE8872F762F05C0662371F0D1
:1014E00096E8862F70E060E02AF09A95660F771FE5
:1014F000881FDAF7880F9695879597F9089597F9D9
:101500009F6780E870E060E008959FEF80EC0895A9
:1015100000240A94161617061806090608950024D2
:101520000A9412161306140605060895092E03944C
:10153000000C11F4882352F0BB0F40F4BF2B11F4C0
:1015400060FF04C06F5F7F4F8F4F9F4F089557FD1F
:101550009058440F551F59F05F3F71F04795880F21
:1015600097FB991F61F09F3F79F0879508951216B8
:1015700013061406551FF2CF4695F1DF08C0161664
:1015800017061806991FF1CF869571056105089415
:101590000895E894BB2766277727CB0197F908952C
:1015A0000E94E30A0C94960A0E94880A38F00E946E
:1015B0008F0A20F0952311F00C947F0A0C94850A71
:1015C00011240C94CA0A0E94A70A70F3959FC1F3D4
:1015D000950F50E0551F629FF001729FBB27F00DE1
:1015E000B11D639FAA27F00DB11DAA1F649F662736
:1015F000B00DA11D661F829F2227B00DA11D621F85
:10160000739FB00DA11D621F839FA00D611D221F3E
:10161000749F3327A00D611D231F849F600D211D22
:10162000822F762F6A2F11249F5750409AF0F1F0A5
:1016300088234AF0EE0FFF1FBB1F661F771F881F0E
:1016400091505040A9F79E3F510580F00C947F0ABD
:101650000C94CA0A5F3FE4F3983ED4F386957795DD
:101660006795B795F795E7959F5FC1F7FE2B880FB4
:10167000911D9695879597F908959F930E94470B22
:101680000F9007FCEE5F0C94700B0C94850A0E947F
:10169000AF0AD8F3E894E0E0BB279F57F0F02AEDBB
:1016A0003FE049EC06C0EE0FBB0F661F771F881F97
:1016B00028F0B23A62077307840728F0B25A620B27
:1016C000730B840BE3959A9572F7803830F49A95F2
:1016D000BB0F661F771F881FD2F790480C94860BAC
:1016E000EF93E0FF07C0A2EA2AED3FE049EC5FEB91
:1016F0000E944C090E94960A0F90039401FC905896
:10170000E8E6F0E00C94920B9F3F31F0915020F40A
:10171000879577956795B795880F911D96958795CD
:1017200097F908959F938F937F936F93FF93EF9310
:101730009B01AC010E94D00AEF91FF910E94A60B81
:101740002F913F914F915F910C94D00ADF93CF93EB
:101750001F930F93FF92EF92DF927B018C016894AD
:1017600006C0DA2EEF010E94E30AFE01E894A5917B
:101770002591359145915591A6F3EF010E944C09B1
:10178000FE019701A801DA9469F7DF90EF90FF90CE
:101790000F911F91CF91DF910895DB018F939F935C
:1017A0000E94390CBF91AF91A29F800D911DA39F04
:1017B000900DB29F900D1124089597FB072E16F4FB
:1017C000009407D077FD09D00E94440C07FC05D097
:1017D0003EF4909581959F4F0895709561957F4F48
:1017E0000895A1E21A2EAA1BBB1BFD010DC0AA1F62
:1017F000BB1FEE1FFF1FA217B307E407F50720F07A
:10180000A21BB30BE40BF50B661F771F881F991FF4
:101810001A9469F760957095809590959B01AC013D
:10182000BD01CF010895052E97FB1EF400940E9480
:101830002A0C57FD07D00E94F10B07FC03D04EF491
:101840000C942A0C50954095309521953F4F4F4F61
:101850005F4F089590958095709561957F4F8F4F5C
:101860009F4F08950E945E0CB7FF0895821B930B53
:1018700008950E945E0CA59F900DB49F900DA49FAB
:10188000800D911D11240895AA1BBB1B51E107C0B7
:10189000AA1FBB1FA617B70710F0A61BB70B881F00
:1018A000991F5A95A9F780959095BC01CD0108958F
:1018B000EE0FFF1F0590F491E02D0994A29FB00157
:1018C000B39FC001A39F700D811D1124911DB29F74
:0E18D000700D811D1124911D0895F894FFCF15
:1018DE00000000003D058805470120011C01440160
:0218EE00700484
:00000001FF
